S01700006275696C642F697269732F6D61696E2E7372656343
S11300000C9469000C9488000C9488000C9488006B
S11300100C9488000C9488000C9488000C9488003C
S11300200C9488000C9488000C9488000C9488002C
S11300300C9488000C94D2050C9488000C945504FC
S11300400C949F0D0C94D50D0C940C050C94170571
S11300500C9422050C9488000C9488000C9488005D
S11300600C9469040C9488000C9488000C94880007
S11300700C9488000C9450050C9488000C9488000F
S11300800C9488000C9488000C9488000C948800CC
S11300900C9488000C9488000C9488000C948800BC
S11300A00C9488000C9488000C9488000C948800AC
S11300B00C9488000C9488000C9488000C9488009C
S11300C00C9488000C9488000C94880000020E069E
S11300D00C0411241FBECFEFD1E2DEBFCDBF12E06E
S11300E0A0E0B2E0E6EFFEE200E00BBF02C0079042
S11300F00D92AE30B107D9F713E0AEE0B2E001C023
S11301001D92AD38B107E1F70E94FE130C947A17E3
S11301100C9400008FB7F894992708958FBF089521
S1130120982F969596959695EFEBF2E0E90FF11DD1
S1130130877021E030E002C0220F331F8A95E2F776
S11301408081822399270895282F9FB7F894E82F58
S1130150FF27E65DFD4F80818F3F81F4E0918503A9
S1130160E21771F40BC02093E50204C0FF27E65D9B
S1130170FD4F20832093850320E007C025E005C0C0
S11301808091E5028F3F91F7EECF892F99278FBF9A
S1130190822F992708958091E902882311F08130F4
S11301A011F458E008C0882329F0813019F02FE1B8
S11301B050E002C050E02EE1622F7FB7F8948091A6
S11301C03B028E7F80933B0280917C00982F9F712D
S11301D0829586958695837019F080E090E00CC036
S11301E040E03327892F99272817390709F041E080
S11301F081E04827842F9927982F9170990F809137
S11302003B028178262F2F71422F440F440F892BF4
S1130210842B80933B02332720937C00583059F57C
S11302208091E6029091E70221E08638920718F067
S113023087E090E01FC0833C910518F086E090E0D1
S113024019C08136910518F085E090E013C0803321
S1130250910518F084E090E00DC08831910518F004
S113026083E090E007C00C9718F082E090E002C0B1
S113027080E090E0582F5770887D852B886D9927F2
S113028080937A00872F99278FBF0895882319F0C8
S11302908CB5806402C08CB58F7B8CBD0895882397
S11302A019F08CB5806802C08CB58F778CBD089529
S11302B00F931F9380E00E9446010FB7F894112713
S11302C0229A2398219A209A8CB580618CBD80E073
S11302D00E944F018CB5877F8CBD8CB58B7F8CBD04
S11302E081E00E9446018DB581608DBD8CB58C7F07
S11302F08CBD0FBF1F910F9108950F931F93CF9340
S1130300DF93182F0FB7F89480911102882311F40A
S11303100E945801802F99278FBF8FB7F894C82F58
S1130320DD272C2F80911102882361F481E08093D2
S11303301102109351028BE00E94A400CFBF80E011
S113034090E021C0E12FFF27E05BFD4F80818F3FCC
S113035089F4E0910902E11789F40CC010930802B2
S113036004C0FF27E05BFD4F10831093090280E077
S113037090E002C085E090E02FBF05C080910802A4
S11303808F3F79F7EBCFDF91CF911F910F910895B4
S11303908FB7F894282F3327922F80910A0288234D
S11303A031F480911102823011F42FBF13C09FBF2A
S11303B08FB7F894282F332780911102882369F48A
S11303C082E08093110210920A022FBF0E9458010A
S11303D0209A289A81E090E008952FBF80E00E943F
S11303E07D0180E090E00895FB0121E030E002C04F
S11303F0220F331F8A95E2F784A5822B84A70895E0
S11304008FB7F8942091BB023091BC024091BD0299
S11304105091BE02E0918400F0918500B09B08C029
S11304202F5F3F4F4F4F5F4FE0918400F091850065
S113043099278FBFC901772766279F01442755272E
S1130440622B732B842B952B0895FC0182819927B1
S1130450982F882721813327822B932B25E096958B
S113046087952A95E1F7817090700895AC01EFB7F4
S1130470F8942091840030918500C901841B950B68
S113048003968617970720F0B9016D5F7F4F02C06E
S1130490640F751F6115710511F461E070E061501E
S11304A07040709389006093880082E086BB8091DD
S11304B06F00826080936F008E2F99278FBF0895FD
S11304C0CF93DF93EC010E942502882339F18A81BE
S11304D029819927982F88273327822B932B877478
S11304E09C7C81549848D1F48F814E812FB7F89425
S11304F0332760910202709103022FBF20E09927F5
S1130500982F88275527842B952B8617970709F052
S113051021E081E02827822F992702C080E090E023
S1130520DF91CF910895FB0121E030E002C0220F5A
S1130530331F8A95E2F784A5822399270895809131
S11305404602823031F481E08093460284E00E94C6
S1130550A4000895EF92FF920F931F937C018FB72D
S1130560F89499270091C9021091CA020F5E1E4F98
S11305701093CA020093C902015111408FBF86E053
S11305800E94A400C801B7010E9409178A5D9E4F0A
S11305901F910F91FF90EF9008951F93982F1FB70D
S11305A0F89480911002823099F58091070289179E
S11305B079F58091050220E030E08F3F11F421E0CD
S11305C030E0232BF1F49FEF909307028F3F19F44F
S11305D02FEF30E00DC0282F3327F901EF5BFD4FDB
S11305E08081809305028F3F11F4909306029083DB
S11305F020933E0281E08093100282E00E94A400D6
S113060005C08FEF809307021092100221E001C011
S113061020E0812F99278FBF90E0213009F491E0E9
S113062081E09827892F99271F9108957FB7F8941F
S11306306091B20020912502309126024091270258
S113064050912802B99B11C08091B3009091B200DF
S1130650280F311D411D511D2F5F3F4F4F4F5F4FDD
S1130660290F311D411D511D04C0260F311D411D8F
S1130670511D872F99278FBFCA01B901089588E0BA
S11306800E94A4000895DF92EF92FF920F931F93AC
S11306908FB7F894282F3327D22E9091B3008091EE
S11306A0B20047B3981711F041FF02C02FBF71C0C9
S11306B0809148028823E1F10E941603E0901E0213
S11306C0F0901F0200912002109121022091EB0270
S11306D03091EC024091ED025091EE026E197F09C7
S11306E0800B910B621773078407950720F0109213
S11306F0480271E01EC02E0D3F1D401F511F809106
S1130700250290912602A0912702B0912802281B6D
S1130710390B4A0B5B0B273E31054105510540F46B
S1130720822F223010F070E005C070E082E002C039
S113073070E086EE682F61508091B60083FDFCCF97
S11307408091B200681709F46F5F209125023091FF
S113075026024091270250912802DA01C90101962C
S1130760A11DB11D860F911DA11DB11D82179307F7
S1130770A407B50710F4622F60958091B60083FD3D
S1130780FCCF6093B300DFBE772319F087E00E94AB
S1130790A4001F910F91FF90EF90DF900895AFB7E1
S11307A0F894BB27E1E0E093480260931E02709343
S11307B01F0280932002909321022093EB02309336
S11307C0EC024093ED025093EE02AFBF0E9443034C
S11307D008956D3118F080E090E008950C96089526
S11307E00F931F93CF93DF93182F8FB7F894282F6D
S11307F03327022F80911302882379F581E08093B7
S113080013021093CB022FBF2FB7F8943327809194
S11308107A00806880937A002FBF8FB7F894C82F2E
S1130820DD279C2F80910C028230A9F48091130261
S1130830813021F48EE00E94A40009C0823059F472
S11308408091CB0280930C0283E080931302CFBF8C
S113085080E090E025C09FBFFBCF8091CB02811741
S113086011F42FBFF5CF812F0E949000882319F037
S113087085E090E014C0E12FE695E695E695FF2724
S1130880E154FD4F177081E090E002C0880F991F7A
S11308901A95E2F72081282B208380E090E00FBF97
S11308A0DF91CF911F910F9108951F920F920FB670
S11308B00F9211248F938091B0008093B0008091A7
S11308C0B60081FDFCCF8F910F900FBE0F901F904B
S11308D018951F920F920FB60F9211240F931F9326
S11308E02F933F934F935F936F937F938F939F9334
S11308F0AF93BF93CF93DF93EF93FF932EB5E09124
S1130900C002F091C102309739F08091B502909104
S1130910B602E80FF91F20838091B5029091B602C8
S113092001969093B6028093B50280E00E944F0135
S1130930C091B502D091B6022091160230911702EF
S1130940C217D30708F042C000917D0310917E03C3
S11309504091C0025091C102CE010A96281739076E
S113096008F4C901DA01AC0FBD1FF801EC0FFD1F3B
S11309709C012150304015C00115110531F08081D2
S11309808EBD0DB407FEFDCF04C01EBC0DB407FE22
S1130990FDCF8EB54115510509F08C932196119622
S11309A03196C217D30740F381E00E944F0101152D
S11309B0110531F00C0F1D1FF80180818EBD01C09F
S11309C01EBCD093B602C093B50211C01092C102EE
S11309D01092C00210927E0310927D0310921702AF
S11309E0109216021092B6021092B5028EB5FF91C3
S11309F0EF91DF91CF91BF91AF919F918F917F91B3
S1130A006F915F914F913F912F911F910F910F9093
S1130A100FBE0F901F90189578941F920F920FB6E7
S1130A200F9211240F900FBE0F901F901895789479
S1130A301F920F920FB60F9211240F900FBE0F90BA
S1130A401F90189578941F920F920FB60F9211244D
S1130A502F933F938F939F93AF93BF932FB7F894A4
S1130A6033278091BB029091BC02A091BD02B0914A
S1130A70BE020196A11DB11D8093BB029093BC02DE
S1130A80A093BD02B093BE022FBFBF91AF919F91BF
S1130A908F913F912F910F900FBE0F901F9018953B
S1130AA01F920F920FB60F9211242F933F934F93DF
S1130AB05F936F937F938F939F93AF93BF93EF93C2
S1130AC0FF93409178005091790078948FB7F8940F
S1130AD0992720913B02322F3695317021708FBFB8
S1130AE0222329F580917A00877F80937A00809170
S1130AF08202813021F0823009F043C00AC03323DE
S1130B0051F05093C6024093C5028FE00E94A400A6
S1130B1038C0332349F48DE790E00197019601979B
S1130B20E1F70E94CB002DC0109282022AC08FB739
S1130B30F89499278FBF2FB7F894332780917A00C0
S1130B40582F5770482F4072987D942B952B8074A2
S1130B50977B982B90619F77892F992780937A00B0
S1130B60887D842B852B87738061992780937A00F5
S1130B70887D842B852B877B8069992780937A00D5
S1130B802FBFFF91EF91BF91AF919F918F917F9173
S1130B906F915F914F913F912F910F900FBE0F90E6
S1130BA01F9018951F920F920FB60F9211242F9336
S1130BB03F934F935F936F937F938F939F93AF93E1
S1130BC0BF93EF93FF938091B0008093B000809126
S1130BD0B60081FDFCCF8091B30099270196AA2726
S1130BE0BB27209125023091260240912702509183
S1130BF02802280F391F4A1F5B1F209325023093B8
S1130C002602409327025093280278940E944303BB
S1130C10FF91EF91BF91AF919F918F917F916F91D0
S1130C205F914F913F912F910F900FBE0F901F90A6
S1130C30189521E0209352022093C202209184004F
S1130C4030918500BC01C9010E94360208950F93BA
S1130C501F93982F1FB7F89480911102823099F551
S1130C6080910A02891779F58091080220E030E02A
S1130C708F3F11F421E030E0232BF1F49FEF9093A8
S1130C800A028F3F19F42FEF30E00DC0282F3327CD
S1130C90F901E05BFD4F8081809308028F3F11F4DE
S1130CA09093090290832093510281E08093110272
S1130CB08BE00E94A40005C08FEF80930A0210927B
S1130CC0110201E001C000E0812F99278FBF1FB7F7
S1130CD0F89480911102882311F40E944601812F17
S1130CE099278FBF90E0013009F491E081E09827C3
S1130CF0892F99271F910F910895EF92FF920F93D7
S1130D001F93CF93DF93982F8FB7F894E82E809199
S1130D101302833009F045C080910C02891709F051
S1130D2040C08091BF02882309F04AC03EC0EF2D25
S1130D30E695E695E695FF274F2D5527E154FD4F9F
S1130D409A012770307081E090E002C0880F991FEB
S1130D502A95E2F78095208128232083C0931202EC
S1130D6011C02196C230D10511F4C0E0D0E0FC2EB0
S1130D708C2F0E9490008823D1F6C017D10789F7E1
S1130D804FEF50E04093CB028FEF80930C0281E051
S1130D90809313028EE00E94A400EFBE80E090E0F6
S1130DA015C0EFBE81E090E011C082E080930C0298
S1130DB01092130280917A008F7780937A00EDCF9E
S1130DC080911202082F1127E801CBCFDF91CF9138
S1130DD01F910F91FF90EF9008958093EF02882365
S1130DE011F484E001C081E08093460284E00E9413
S1130DF0A4000895FC01662361F08385813021F409
S1130E0080E00E94A4000895833019F481E00E94D8
S1130E10A40008954F925F926F927F928F929F9257
S1130E20AF92BF92CF92DF92EF92FF920F931F93F4
S1130E30CF93DF932C0180911502882309F083C19D
S1130E4080917F03853009F07EC10E94C801882308
S1130E5009F479C18091D602882309F074C1B201E2
S1130E6082E00E949302882311F490E003C0F2010F
S1130E7096A59F7080918302981781F090938302C6
S1130E80289885EC8EBD0DB407FEFDCF8EB5906815
S1130E909EBD0DB407FEFDCF8EB5289AE2012196C2
S1130EA08981F201218140E09927982F88273327EF
S1130EB0822B932B87749C7C8154984809F441E0DD
S1130EC0442301F1289886E88EBD0DB407FEFDCFBA
S1130ED08EB51EBC0DB407FEFDCF8EB5289A99279A
S1130EE08F71907020914D0240914202240F312D58
S1130EF0311D43E0359527954A95E1F728173907C1
S1130F000CF421C1289882EC8EBD0DB407FEFDCFF0
S1130F108EB589E08EBD0DB407FEFDCF8EB5289A3F
S1130F200E9400027B018C01B20184E00E949302C2
S1130F30882319F4E0E0F0E006C0D2018C918550DA
S1130F40F201E80FF11D289881E88EBD0DB407FE6B
S1130F50FDCF8EB51EBC0DB407FEFDCF8EB5289A0D
S1130F608F71893079F0289882EC8EBD0DB407FE1C
S1130F70FDCF8EB586E08EBD0DB407FEFDCF8EB5D8
S1130F80289AE1C08FB7F89499272F9A209184006A
S1130F90309185008FBF2F98289880E68EBDD201AE
S1130FA09C910DB407FEFDCF8EB59EBD792F725076
S1130FB0773010F4672F01C067E0DE01962F4D9162
S1130FC00DB407FEFDCF8EB54EBD9150C1F76150F3
S1130FD0C60FD11D6F5F21962E193F092E553F4F25
S1130FE03901882477FC8094982C6E0C7F1C801E19
S1130FF0911E309719F4972F961B42C02081E180EF
S11310008281A3809927AA27BB27BA2FA92F982FBB
S11310108827332744275527522F4427332722274D
S1131020FF24002711278701FF24EE242E293F29BE
S1131030402B512BBB24CC24DD242A293B294C29C9
S11310405D29822B932BA42BB52B86199709A8090C
S1131050B9098383292F3A2F4B2F552722839D01CA
S11310604427552721838B2F9927AA27BB278083C1
S1131070C2CF28810DB407FEFDCF21968EB52EBDBB
S11310809150B8F70DB407FEFDCF8EB5289A289875
S113109082EC8EBD0DB407FEFDCF8EB586E08EBD0D
S11310A00DB407FEFDCF8EB5289A3097D1F120817B
S11310B0E1808281A3809927AA27BB27BA2FA92F71
S11310C0982F8827332744275527522F442733271F
S11310D02227FF24002711278701FF24EE242E292D
S11310E03F29402B512BBB24CC24DD242A293B2926
S11310F04C295D29822B932BA42BB52B860D971D90
S1131100A81DB91D8383292F3A2F4B2F55272283DE
S11311109D014427552721838B2F9927AA27BB2775
S11311208083B20181E00E94F401F20160A671A6FD
S113113082A693A686E080937F0384E080931502C1
S113114080E090E002C085E090E0DF91CF911F91B4
S11311500F91FF90EF90DF90CF90BF90AF909F9052
S11311608F907F906F905F904F900895AF92BF9251
S1131170CF92DF92EF92FF920F931F93CF93DF935F
S11311808091D602882309F402C10E94C8018823F1
S113119009F4FDC08FB7F8949927C0914E02D091FD
S11311A04F028FBF1092D60228988FE88EBD0DB4DF
S11311B007FEFDCF8EB51EBC0DB407FEFDCF8EB568
S11311C0289A982F80911502833011F0873031F4DA
S11311D085E080937F0388E080931502A92EBB24C9
S11311E0A2FE63C080911502863019F41092150294
S11311F003C0882309F059C0943009F045C02898E9
S113120086E88EBD0DB407FEFDCF8EB51EBC0DB4B1
S113121007FEFDCFFEB4289A2FE1F222809142020C
S1131220982F96959695EF2DE91B8E0F8093420289
S11312300091220210912302F80184A58B7F84A7D8
S1131240B80183E00E94F401F801F6A60E940002AE
S11312507B018C01C0902202D0902302B60181E070
S11312600E94F401CE19DF092797CE01AA2797FD22
S1131270A095BA2F8E0D9F1DA01FB11FF60180A748
S113128091A7A2A7B3A70EC0E0912202F091230276
S113129084A5877F84A7E0912202F091230284A58C
S11312A08D7F84A785E080931502A3FE70C0809192
S11312B01502843009F04EC085E080937F031092BC
S11312C0150280912402833019F4109224025FC025
S11312D0C0918603D0918703CE010E942502882302
S11312E089F18A8129819927982F88273327822B8E
S11312F0932B87749C7C8154984821F58F812E818F
S11313009927982F88273327822B932B8F5F9F4F02
S1131310C9F090E08091C202882309F491E09923F6
S113132089F012E01093520281E08093C20280910E
S113133084009091850069E973E00E94360210935D
S1131340240225C0109224021092470280E00E94D9
S1131350ED061DC08530D9F420914D02289886E809
S11313608EBD0DB407FEFDCF8EB51EBC0DB407FEB9
S1131370FDCF8EB5289A8F71922F96959695891BDD
S1131380280F20934D0289E08093150208C09091A4
S11313901502992309F4E5C2993009F012C228987C
S11313A080E28EBD0DB407FEFDCF8EB51EBC0DB41C
S11313B007FEFDCF8EB5482F5527433008F496C35A
S11313C0842F99278A970CF091C31EBCE0912202C6
S11313D0F09123024083542F5250573010F4452F7C
S11313E001C047E0DF011196242FFD0160E070E0A9
S11313F00DB407FEFDCF8EB51EBC992781936827D7
S1131400062E6295607F6025072E762F62956F7099
S11314100626669576276727660F660F660F602592
S1131420215031F74150A40FB11D4F5F1196E09147
S11314302202F0912302818190E08770823009F4C6
S113144091E0992349F020E030E080912402823039
S113145081F421E030E00DC08FB7F894282F3327B2
S113146090E08091CE02833008F491E02FBF292FC1
S11314703327232B09F45CC0952F941B18C00DB49B
S113148007FEFDCF8EB51EBC8C938D916827062E6A
S11314906295607F6025072E762F62956F70062611
S11314A0669576276727660F660F660F602591504D
S11314B030F70DB407FEFDCF8EB51EBC9B01282767
S11314C0022E2295207F2025032E322F22952F7065
S11314D00226269532272327220F220F220F2025AA
S11314E00DB407FEFDCF8EB51EBC2827022E229513
S11314F0207F2025032E322F22952F700226269539
S113150032272327220F220F220F20250DB407FE96
S1131510FDCF8EB5E0912202F091230285A7289A8F
S113152015E010937F0310921502232B31F015C29E
S11315300DB407FEFDCF8EB5D9C2E0902202F09023
S1131540230267010894C11CD11CF701818190E03A
S1131550282F3327277030702230310509F491E0A9
S113156080912402992321F1823009F025C1F701E9
S11315709381E0918603F09187038381981709F0A2
S11315801BC12230310509F017C180916F008D7F96
S113159080936F001092C202BF0180E00E94F401A8
S11315A0109224021092470280E00E94ED0604C1CA
S11315B08823C9F4C7010E9460028823A1F0109314
S11315C0840282E08093850210928602F70183816F
S11315D08093870284E892E00E940A07882319F422
S11315E083E0809324020091840010918500C70158
S11315F00E946002882311F0045E1C4F1093B8020D
S11316000093B70280918400909185009801281B73
S1131610390B12161306A4F480914702882369F447
S113162090E08091C202882309F491E0992341F06B
S1131630C9010E94190680E801C0806880934702AE
S1131640F601808527819927582F44273327422B79
S1131650532B80912902282F3327F901EE0FFF1F06
S1131660E952FD4F808191817091C30284179507DF
S113167069F4F901E058FC4F8081871709F467C0C9
S1131680872F8F5F8093C30280831DC000E010E02A
S113169080E090E0C7EDD2E0E0E8F3E0DF01682FFE
S11316A09C01888199818417950779F420932902F4
S11316B09091C3028C91891709F449C0892F8F5FD7
S11316C08093C3028C9300E829C08081972F981BD4
S11316D0091710F4092F122F6F5FC9010196119693
S11316E02296319685309105D1F66530B9F4109380
S11316F02902A12FBB27FD01EE0FFF1FE952FD4F69
S1131700518340838091C3028F5F8093C302FD01A4
S1131710E058FC4F8083A857BC4F1C929091C302A1
S1131720892F8F778F3779F40F3768F0E0E8F3E08B
S1131730292F207880818F6789132083319683E055
S1131740E538F807B9F780912902282F3327F601E5
S11317509281A22FBB27FD01E857FC4F808180FFB7
S113176007C0FD01E153FD4F8081981729F102C0A4
S113177081608083A153BD4F9C93DFB6F894809120
S1131780CE028330B0F4E091E802E80FE33008F0D1
S1131790E350FF27EE0FFF1FE85EFD4F008111812C
S11317A0F182E0828F5F8093CE0285E00E94A400E4
S11317B078018D2D99278FBFF0922302E0922202A7
S11317C0C3C0892F8150833008F09CC0815082307F
S11317D0E0F430917F033130C1F420E08091C20203
S11317E0882309F421E0222381F02F9883E0809359
S11317F052023093C20280918400909185006BE282
S113180073E00E94360282E068C0933009F042C05F
S113181080917F03833009F097C00E94C801882318
S1131820C9F128988FE88EBD0DB407FEFDCF8EB5A3
S11318301EBC0DB407FEFDCF8EB5289A80918100A1
S113184080648093810080E286BB80916F00806217
S113185080936F0090913D02289888EC8EBD0DB462
S113186007FEFDCF8EB590669EBD0DB407FEFDCF7D
S11318708EB5289A289882EC8EBD0DB407FEFDCF54
S11318808EB586E08EBD0DB407FEFDCF8EB5289AC9
S113189084E023C0809115028150823000F580914C
S11318A07F038530E1F40E94C8018823C1F02898A1
S11318B082EC8EBD0DB407FEFDCF8EB583E08EBDE8
S11318C00DB407FEFDCF8EB5289A80916F008F7DF1
S11318D080936F001092D60283E080937F039091EF
S11318E01502913041F480917F038330B1F52F9A32
S11318F090937F0325C0923039F580917F03833024
S113190061F51EC0973001F50E94C8018823E1F0FB
S113191090913D02289888EC8EBD0DB407FEFDCF52
S11319208EB590669EBD0DB407FEFDCF8EB5289A88
S113193080917F03853021F484E080937F0304C089
S113194088E08093150204C080911502883029F440
S11319501092150283E00E94A4008091150288234E
S113196009F580917F038530D1F48091D6028823D4
S1131970B1F480912402882391F480914702882352
S113198071F490E08091C202882309F491E09923D4
S113199031F00E949F0280911502882319F489E096
S11319A00E94A4008091C202823009F092C0109279
S11319B0C202F0905202F2E0FF1609F466C023E07E
S11319C0F21609F46AC081E0F81609F082C0209189
S11319D0B7023091B80280918400909185004091C3
S11319E04702403829F4109247020E949F0271C0B6
S11319F08901081B190B47FF03C010161106ECF0F0
S1131A00C0914302D0914402809124028823A9F416
S1131A10CE010E940A079927882351F48CA58E7F52
S1131A208CA7F0922402D0938703C093860329C025
S1131A309927F82E882329F102C065E0F62E20911B
S1131A404702822F99278F77019759F420782260D3
S1131A502093470280E198E00E94AA020E9419069E
S1131A6038C027FF0AC0101611063CF480E88093A2
S1131A704702C8010E94190602C0109247028F2D26
S1131A8009C083E08093470224C01092240210927C
S1131A90470280E00E94ED061CC080917F038230E3
S1131AA019F4F0927F0313C080911502863079F403
S1131AB010921502289881E88EBD0DB407FEFDCF63
S1131AC08EB51EBC0DB407FEFDCF8EB5289A0E94BC
S1131AD08B0D8FB7F894282F332780913C028130E7
S1131AE061F081E080933C022FBF4ACB289A85E0C5
S1131AF080937F031092150230CF10923C022FBFC7
S1131B00DF91CF911F910F91FF90EF90DF90CF90D5
S1131B10BF90AF9008958FB7F894282F3327809102
S1131B203C02882329F0806880933C022FBF0895EB
S1131B3081E080933C022FBF0E94B60808957894F8
S1131B401F920F920FB60F9211242F933F934F932E
S1131B505F936F937F938F939F93AF93BF93EF9311
S1131B60FF93E6E8F0E080819181208131818FB795
S1131B70F894992730934F0220934E0221E020934A
S1131B80D6028FBF0E948B0DFF91EF91BF91AF9151
S1131B909F918F917F916F915F914F913F912F9181
S1131BA00F900FBE0F901F90189578941F920F926C
S1131BB00FB60F9211242F933F934F935F936F931C
S1131BC07F938F939F93AF93BF93EF93FF938091F2
S1131BD06F008D7F80936F0078949FB7F894809105
S1131BE0C202813019F482E08093C202892F9927BE
S1131BF08FBF0E948B0DFF91EF91BF91AF919F9189
S1131C008F917F916F915F914F913F912F910F90A1
S1131C100FBE0F901F9018958FB7F894282F332775
S1131C2080913C02815080933C02803811F02FBF98
S1131C30089581E080933C022FBF0E94B608089566
S1131C401F938FB7F894992720913C022F5F20931C
S1131C503C028FBF80914602882311F015E023C017
S1131C60809115028823E1F480917F03813049F447
S1131C7090E08091C202882309F491E0992381F0D5
S1131C8005C0853019F489E090E00CC083E08093AE
S1131C9015020E948B0D85E08093460210E003C07C
S1131CA085E090E0182F0E940C0E812F99271F9138
S1131CB008951F93FC018FE38287809114028F5F44
S1131CC08093140283832FB7F894332780913C02C6
S1131CD08F5F80933C022FBF80914602882311F0CE
S1131CE015E00DC0F093C802E093C70281E0809331
S1131CF046021092C40284E00E94A40010E00E94F4
S1131D000C0E812F99271F9108951F93CF93DF9372
S1131D10182FFA01A22F2D3118F086E090E08EC022
S1131D20EA01219689812181B0E09927582F44271F
S1131D303327422B532BCA0187749C7C81549848C7
S1131D4009F4B1E0BB2349F4CA0180739070816443
S1131D5098688183892F99278983A35FA0832FB7EC
S1131D60F894332780910202909103022FBF808759
S1131D70892F992781872FB7F894332780910402FC
S1131D802FBF99278483158213876683872F99270A
S1131D9087838FB7F894282F3327809110028823E4
S1131DA071F482E080931002109207022FBFCF01DA
S1131DB00E94590E9927182F882399F00FC02FBF1E
S1131DC0F0934002E0933F028FB7F894C82FDD27C9
S1131DD02C2F80911002882399F406C080E00E9481
S1131DE0CD02812F99272AC081E08093100210929E
S1131DF03E0282E00E94A400CFBF80E090E01EC0BB
S1131E00809141028F3F89F4E0910602EE2369F04C
S1131E1010C01092050204C0FF27EF5BFD4F108233
S1131E201092060280E090E002C085E090E02FBFAF
S1131E3005C0809105028F3F79F7EBCFDF91CF91F9
S1131E401F9108951F93CF93DF93FB01DB01169637
S1131E508683892F9927ED01898311E01387809167
S1131E60B9029091BA02892B19F085E090E02AC05A
S1131E70F093BA02E093B902435F40834D508091DE
S1131E800B02882319F480E090E01CC08385ED01E7
S1131E9069817727762F662726813327622B732B58
S1131EA010920B02242FAF010E94850E9927282F30
S1131EB0882331F010930B021092BA021092B902E7
S1131EC0822F9927DF91CF911F910895CF93DF93AC
S1131ED0EC0146E0BE018FEF9FEF0E94220F8823A2
S1131EE0C1F7DF91CF9108950F931F93CF93DF93A1
S1131EF0182FEB01042FE82FFF27EE0FFF1FE754E5
S1131F00FD4F1182108210920B02E091B902F09100
S1131F10BA02309721F08091EA0280FF0EC081E07E
S1131F2080930B0203C08DE00E94A4001123B9F436
S1131F30602FCE010E94FA0612C020812D50332753
S1131F4067817727762F662786819927682B792BD7
S1131F50AF0183850E94850E882341F3E4CFDF918E
S1131F60CF911F910F9108952F923F924F925F92BC
S1131F706F927F928F929F92AF92BF92CF92DF9295
S1131F80EF92FF920F931F93CF93DF93CDB7DEB7FA
S1131F90AB970FB6F894DEBF0FBECDBF873009F400
S1131FA0A3C2883098F4833009F4CEC0843038F466
S1131FB0813009F458C0823008F095C027C08530BC
S1131FC009F432C1863008F033C2CEC08B3009F434
S1131FD0DDC28C3038F4893009F460C38A3008F0EB
S1131FE0C1C2B7C28D3009F483C38D3038F08E304E
S1131FF009F48AC38F3009F0CBC3A5C38091EA02E8
S1132000882309F4C5C390E011E04FC38E010F5F2C
S11320101F4F66E0C8010E94E903FC0180910E0293
S113202090910F028183892F992780838091B30235
S11320309091B4028383892F99278283809100022F
S1132040909101028583892F9927848346E0B80102
S11320508091B3029091B4020E94220F882309F464
S113206097C380E03DC0B7E0EB2EF12CEC0EFD1ED3
S11320706CE1C7010E94E9038C0181E00E94F00336
S113208080E00E94F00380910E0290910F02F8010B
S11320908183892F992780838091CC029091CD02EE
S11320A08383892F992782838091D4029091D502CA
S11320B08583892F9927848380910002909101025E
S11320C08783892F992786834CE1B7018091B302D6
S11320D09091B4020E94220F882309F459C381E02D
S11320E00E94A40055C32FB7F894332780913E0271
S11320F08093070282E0809310022FBF8091070231
S1132100882309F045C380913F02909140020E94C8
S1132110590E082F1127002309F43AC380E00E94C6
S1132120CD0220913F023091400280910B0288231E
S113213009F02EC36091B9027091BA026217730755
S113214009F026C3402F6DC08091460210924602CA
S1132150853009F41DC3863009F41AC3873009F4A5
S113216017C38093460214C32FB7F8943327809182
S11321703C028F5F80933C022FBF40914602413066
S113218081F58091C4028F5F8093C402863048F544
S11321902091C7023091C802809147028823C1F47C
S11321A090E08091C202882309F491E0992381F0A0
S11321B03093440220934302409347028BED91E114
S11321C00E94AA020E9419061092EF0283E004C042
S11321D085E08093EF0282E0809346020E940C0E19
S11321E0D7C2109246020E940C0EF090EF020091AA
S11321F0C7021091C802F80182858F3309F0C8C262
S113220080E00E94CD0280910B02882309F0C0C2B5
S11322106091B9027091BA026017710709F0B8C2EF
S11322204F2D0E94740FB4C28FB7F894282F332710
S11322308091CE02882309F4A5C2E091E802FF2729
S1132240EE0FFF1FE85EFD4F008111812FBFF801E3
S11322508285978126818F3309F0B4C063857081AC
S1132260892F9927582F4427822F9927482B592B98
S11322708FB7F894992720910202309103028FBFFF
S11322804217530721F04F5F5F4F09F0B5C061302B
S113229009F0B2C08CE0E82EF12CE00EF11E972F6D
S11322A09D50F8018385813069F5923009F0A4C00E
S11322B0848525859927982F88273327822B932B6C
S11322C020910E0230910F022817390708F094C0AC
S11322D0818520859927982F88273327822B932B54
S11322E09093B4028093B302848525859927982F0F
S11322F088273327822B932B90930F0280930E020F
S113230080E01BC08330E1F4923009F075C0F8011D
S1132310848525859927582F44273327422B532B0F
S113232080910E0290910F028417950708F064C003
S113233050930F0240930E0281E00E94A4005CC0FF
S1132340823019F0843009F057C09C3109F5F80146
S1132350848525859927582F44273327422B532BCF
S113236080910E0290910F028417950708F044C0E3
S113237050930F0240930E024CE1B7018091B302D7
S11323809091B4020E94220F882309F435C016C02C
S1132390963091F5F801848525859927582F44278F
S11323A03327422B532B80910E0290910F028417F6
S11323B0950710F550930F0240930E02C7010E9437
S11323C0660F1AC0892F9927582F4427822F9927DF
S11323D0482B592B8FB7F8949927209102023091FA
S11323E003028FBF4217530719F04F5F5F4F21F469
S11323F08FB7F89499278FBF9FB7F8948091E8021C
S1132400E82FFF27EE0FFF1FE85EFD4F11830083C7
S11324108F5F8093E802833010F01092E80280917D
S1132420CE0281508093CE02892F99278FBFFCCE94
S11324306FB76BA3F8942090490230904A02409001
S11324404B0250904C026624772488242EE4A22E5A
S113245093E8B92ECC24DD24EE24FF2400E010E020
S1132460222D332D442D552D662D772D882D90E06A
S11324700E9488152CA33DA34EA35FA368A779A748
S11324808AA79BA7822E932EA42EB52E2401350154
S113249000E20E948616A22EB32EC42ED52EA301CE
S11324A0920156954795379527952A0D3B1D4C1D4E
S11324B05D1D57FF05C05F772F5F3F4F4F4F5F4F45
S11324C02093490230934A0240934B0250934C02AA
S11324D0EBA18E2F99278FBF8FB7F894992730934C
S11324E0CA022093C9023CC080913A02882361F554
S11324F02091E1023091E2024091E3025091E40222
S1132500EFB7F894FF2760911E0270911F0280912B
S1132510200290912102E090EB02F090EC020091F5
S1132520ED021091EE026E0D7F1D801F911FEFBF13
S11325302093E1023093E2024093E3025093E402D9
S113254010923A020E94CF030E9416030E943F0396
S11325501FC10E9416038FB7F8949927109248025E
S11325608FBF16C18FB7F89499271092C1021092A9
S1132570C00210927E0310927D03109217021092F3
S113258016021092B6021092B502EACF2FB7F89451
S113259033278091510280930A0282E080931102D2
S11325A02FBF80910A02882309F0F2C0209A289A4A
S11325B080917F03882309F075C08EEF91E0019725
S11325C001960197E1F716982F9886E090E001971D
S11325D001960197E1F7169A289883EC8EBD0DB405
S11325E007FEFDCF8EB51EBC0DB407FEFDCF8EB524
S11325F0289A289882EC8EBD0DB407FEFDCF8EB5C7
S113260088E08EBD0DB407FEFDCF8EB5289A8EEFFF
S113261091E0019701960197E1F728988EEC8EBD21
S11326200DB407FEFDCF8EB58DE48EBD0DB407FE4F
S1132630FDCF8EB5289A289889EC8EBD0DB407FE7F
S1132640FDCF8EB587EC8EBD0DB407FEFDCF8EB5E4
S1132650289A289885EC8EBD0DB407FEFDCF8EB563
S113266080E88EBD0DB407FEFDCF8EB5289A10927A
S113267083028BE080933D02289888EC8EBD0DB4D4
S113268007FEFDCF8EB58BE68EBD0DB407FEFDCFE4
S11326908EB5289A2F9A81E080937F0380E00E9470
S11326A0270676C00E948B0D73C02091EA02812F09
S11326B08223C1F0E92FFF27EE0FFF1FE754FD4FE0
S11326C04081518111821082812F8095282320938B
S11326D0EA02992339F463E0CA010E94FA06110F51
S11326E091E0E3CF9F5F983008F052C0110FDDCF27
S11326F080910B02E82FFF27EE0FFF1FE754FD4FD9
S11327006081718141E08DCD8FB7F8949927209134
S1132710CB0220930C0223E0209313028FBF8091FD
S11327200C02882319F0813099F506C081E080936A
S113273082021092E90204C0809382028093E9022B
S11327400E94CB0025C0109282020091C502109114
S1132750C6028091E902882319F0813049F404C04B
S113276080E00E947D0609C081E00E947D060CC0C5
S1132770882319F0813061F407C01093D5020093C7
S1132780D40206C02FBF04C01093CD020093CC0224
S1132790AB960FB6F894DEBF0FBECDBFDF91CF91DD
S11327A01F910F91FF90EF90DF90CF90BF90AF906B
S11327B09F908F907F906F905F904F903F902F905D
S11327C008958091E5028F3FB1F0282F3327F90156
S11327D0E65DFD4F80818093E5028F3F11F4809385
S11327E085038FEF80832F3F31F0822F0E94B40F37
S11327F081E090E0089580E090E008950F931F93A6
S11328000FB7F89414BE88E10FB6F8948093600073
S1132810109260000FBE40E150E06FEF70E08AE27A
S113282092E00E9473178FEF8093E50280938503F3
S113283056985E9854985C9880916F008F7D809331
S11328406F00209A289A279A2F980E9A169A83E551
S113285092E0909323028093220210924D028AE523
S11328608093420281E08093810080E28093B600ED
S113287083E08093B10080918400909185004AE7C1
S113288020918400309185002817390708F44150BD
S1132890442311F0C901F4CF9091B2008091B200A9
S11328A08917E1F320918400309185009091B20062
S11328B08091B2008917E1F38091840090918500A2
S11328C0821B930B409655E0969587955A95E1F7B0
S11328D09093E7028093E6021092B1008091B100D8
S11328E080938100809181008093B6001092B200A1
S11328F010928500109284008FEF87BB87B386BB4C
S11329008091B6008571E1F718B88FEF87B90C98FC
S1132910149810927A00109285001092840080918D
S11329206F00816080936F0080918100887F826056
S1132930809381000E94E1138823E1F71092BF0283
S11329408FEF8093500280E00E947D01182F8091C8
S1132950B60080628093B6008091B60081FDFCCF02
S113296082E08093B0008091B60080FDFCCF83E0CC
S11329708093B1008091B60083FDFCCF86EE8093F6
S1132980B300809170008260809370000E944303C2
S113299080910002909101020196AA27BB2780939F
S11329A0490290934A02A0934B02B0934C0280EFE9
S11329B092E090931902809318028F9690931B02D1
S11329C080931A028EE493E090931D0280931C027C
S11329D08FEF9FEF9093D8028093D7029093DA02FF
S11329E08093D9029093DC028093DB029093DE0201
S11329F08093DD029093E0028093DF0280910002D5
S1132A008295807F809314028FEF809341020E940D
S1132A10E1138823E1F7802F99278FBF78940E94D0
S1132A20200E8FB7F894482F552757C08091700017
S1132A30992783709070892B19F4E5E0F0E014C0B5
S1132A408091B6008A71E1F78091B3009091B20051
S1132A50891B8C3038F08091B200853F18F4E3E094
S1132A60F0E002C0E2E0F0E080916E00867009F5CB
S1132A7080916F008E72E9F4809171008E72C9F4B6
S1132A800CB407FC16C08091C100887191F4809148
S1132A90C900887171F48091BC0082FD0AC08091E4
S1132AA07A0087FF03C081E090E005C085E090E0F4
S1132AB002C080E090E023B78E1708F4E82FFF27C8
S1132AC0E453FF4FE491207F2160E22BE3BF78942D
S1132AD08895F89483B78E7F83BF8091E5028F3FFA
S1132AE009F4A4CF282F3327F901E65DFD4F808137
S1132AF08093E5028F3F11F4809385038FEF8083E9
S1132B002F3F09F493CF4FBF822F0E94B40F89CF78
S1132B10ACE2B0E0EEE8F5E10C943C17222E332E43
S1132B20442E552E662E772E882E992EFE01319630
S1132B30A8E01192AA95E9F729823A824B825C8235
S1132B406D827E828F829886FE013996B8E011925A
S1132B50BA95E9F7A986BA86CB86DC86ED86FE8629
S1132B600F87188B89819A81AB81BC8189A79AA729
S1132B70ABA7BCA77C018D018FEF9FEFA0E0B0E075
S1132B80E822F9220A231B2389A59AA5ABA5BCA593
S1132B901D014424552489859A85AB85BC858DA364
S1132BA09EA3AFA3B8A75C016D018FEF9FEFA0E0D8
S1132BB0B0E0A822B922CA22DB228DA19EA1AFA136
S1132BC0B8A53D0188249924C801B701A60195013F
S1132BD00E941D1769A37AA38BA39CA3C801B70104
S1132BE0A40193010E941D177B018C01C201B10154
S1132BF0A60195010E941D175B016C01C201B10180
S1132C00A40193010E941D173B014C01EA0CFB1C1B
S1132C100C1D1D1D89A19AA1ABA1BCA19D01442736
S1132C2055272E0D3F1D401F511F2A153B054C05EE
S1132C305D0540F480E090E0A1E0B0E0680E791E0C
S1132C408A1E9B1ECA01AA27BB27860D971DA81D95
S1132C50B91D8D8F9E8FAF8FB8A3A901332722276B
S1132C6089A19AA1ABA1BCA1A070B070280F391F93
S1132C704A1F5B1F298F3A8F4B8F5C8FA98CBA8CAC
S1132C80CB8CDC8CED8CFE8C0F8D18A1FE01719623
S1132C9098E011929A95E9F7ED8AFE8A0F8B188FC6
S1132CA02D813E814F8158856DA17EA18FA198A56C
S1132CB00E941D173B014C012D853E854F85588987
S1132CC069A57AA58BA59CA50E941D172D893E890F
S1132CD04F89588D260F371F481F591F260D371D42
S1132CE0481D591D2D8B3E8B4F8B588F6D887E88C8
S1132CF08F88988C2A2D3B2D4C2D5D2D662D772D9C
S1132D00882D992DE2E1AC960C945817A0E1B0E01F
S1132D10ECE8F6E10C943C17222E332E442E552E6B
S1132D20662E772E882E992E002309F466C088E03B
S1132D30FE01319611928A95E9F729833A834B83F0
S1132D405C836D837E838F829887E0E2E01B1E168E
S1132D50CCF52D813E814F815885602F772767FD03
S1132D607095DA01C901062E04C0B695A79597950A
S1132D7087950A94D2F78D879E87AF87B88B04C056
S1132D80220F331F441F551FEA95D2F789819A8178
S1132D90AB81BC8104C0B695A795979587956A9534
S1132DA0D2F7282B392B4A2B5B2B29873A874B8761
S1132DB05C8729843A844B845C846D847E848F840C
S1132DC098881BC01D861E861F86188A2E2F3327BF
S1132DD027FD3095309521953F4F8D819E81AF81A0
S1132DE0B88504C0B695A795979587952A95D2F787
S1132DF089879A87AB87BC87DCCF222D332D442D5E
S1132E00552D662D772D882D992DE2E160960C9431
S1132E105817AA1BBB1B51E107C0AA1FBB1FA6174B
S1132E20B70710F0A61BB70B881F991F5A95A9F76F
S1132E3080959095BC01CD010895629FD001739F48
S1132E40F001829FE00DF11D649FE00DF11D929F42
S1132E50F00D839FF00D749FF00D659FF00D992781
S1132E60729FB00DE11DF91F639FB00DE11DF91FA5
S1132E70BD01CF01112408952F923F924F925F928A
S1132E806F927F928F929F92AF92BF92CF92DF9276
S1132E90EF92FF920F931F93CF93DF93CDB7DEB7DB
S1132EA0CA1BDB0B0FB6F894DEBF0FBECDBF09946F
S1132EB02A88398848885F846E847D848C849B84C6
S1132EC0AA84B984C884DF80EE80FD800C811B81D4
S1132ED0AA81B981CE0FD11D0FB6F894DEBF0FBE03
S1132EE0CDBFED010895DC0101C06D934150504008
S1092EF0E0F70895FFCF96
S1112EF60100010022FFFFFFFFFFFF010200A9
S9030000FC
