S01700006275696C642F697269732F6D61696E2E7372656343
S11300000C9469000C9488000C9488000C9488006B
S11300100C9488000C9488000C9488000C9488003C
S11300200C9488000C9488000C9488000C9488002C
S11300300C9488000C946F050C9488000C94F203C3
S11300400C94AC0D0C94E20D0C94A9040C94B4041F
S11300500C94BF040C9488000C9488000C948800C1
S11300600C9406040C9488000C9488000C9488006A
S11300700C9488000C94ED040C9488000C94880073
S11300800C9488000C9488000C9488000C948800CC
S11300900C9488000C9488000C9488000C948800BC
S11300A00C9488000C9488000C9488000C948800AC
S11300B00C9488000C9488000C9488000C9488009C
S11300C00C9488000C9488000C94880000020E069E
S11300D00C0411241FBECFEFD1E2DEBFCDBF12E06E
S11300E0A0E0B2E0E2E1F1E300E00BBF02C0079060
S11300F00D92AE30B107D9F713E0AEE0B2E001C023
S11301001D92A339B107E1F70E94F2140C948818E8
S11301100C9400008FB7F894992708958FBF089521
S1130120982F969596959695E5ECF2E0E90FF11DDA
S1130130877021E030E002C0220F331F8A95E2F776
S11301408081822399270895282F9FB7F894E82F58
S1130150FF27E65DFD4F80818F3F81F4E0918B03A3
S1130160E21771F40BC02093EB0204C0FF27E65D95
S1130170FD4F208320938B0320E007C025E005C0BA
S11301808091EB028F3F91F7EECF892F99278FBF94
S1130190822F992708958091EF02882311F08130EE
S11301A011F458E008C0882329F0813019F02FE1B8
S11301B050E002C050E02EE1622F7FB7F8948091A6
S11301C03B028E7F80933B0280917C00982F9F712D
S11301D0829586958695837019F080E090E00CC036
S11301E040E03327892F99272817390709F041E080
S11301F081E04827842F9927982F9170990F809137
S11302003B028178262F2F71422F440F440F892BF4
S1130210842B80933B02332720937C00583059F57C
S11302208091EC029091ED0221E08638920718F05B
S113023087E090E01FC0833C910518F086E090E0D1
S113024019C08136910518F085E090E013C0803321
S1130250910518F084E090E00DC08831910518F004
S113026083E090E007C00C9718F082E090E002C0B1
S113027080E090E0582F5770887D852B886D9927F2
S113028080937A00872F99278FBF08956D3118F0D6
S113029080E090E008950C9608950B9608958823C5
S11302A019F08CB5806402C08CB58F7B8CBD089529
S11302B0882319F08CB5806802C08CB58F778CBD0B
S11302C008950F931F9380E00E944F010FB7F89495
S11302D01127229A2398219A209A8CB580618CBD8B
S11302E080E00E9458018CB5877F8CBD8CB58B7FD4
S11302F08CBD81E00E944F018DB581608DBD8CB5B0
S11303008C7F8CBD0FBF1F910F9108950F931F9386
S1130310CF93DF93182F0FB7F8948091110288239D
S113032011F40E946101802F99278FBF8FB7F89431
S1130330C82FDD272C2F80911102882361F481E0DE
S113034080931102109351028BE00E94A400CFBF4E
S113035080E090E021C0E12FFF27E05BFD4F80812A
S11303608F3F89F4E0910902E11789F40CC01093DE
S1130370080204C0FF27E05BFD4F108310930902BD
S113038080E090E002C085E090E02FBF05C080913E
S113039008028F3F79F7EBCFDF91CF911F910F9137
S11303A00895FB0121E030E002C0220F331F8A953B
S11303B0E2F784A5822B84A708958FB7F89420913F
S11303C0C1023091C2024091C3025091C402E09133
S11303D08400F0918500B09B08C02F5F3F4F4F4FC2
S11303E05F4FE0918400F091850099278FBFC90188
S11303F0772766279F0144275527622B732B842B6D
S1130400952B0895FC0182819927982F88272181B3
S11304103327822B932B25E0969587952A95E1F730
S1130420817090700895AC01EFB7F8942091840026
S113043030918500C901841B950B03968617970795
S113044020F0B9016D5F7F4F02C0640F751F611505
S1130450710511F461E070E061507040709389009F
S11304606093880082E086BB80916F0082608093F5
S11304706F008E2F99278FBF0895CF93DF93EC01E0
S11304800E940202882339F18A8129819927982FB1
S113049088273327822B932B87749C7C815498481C
S11304A0D1F48F814E812FB7F894332760910202E3
S11304B0709103022FBF20E09927982F8827552792
S11304C0842B952B8617970709F021E081E02827D4
S11304D0822F992702C080E090E0DF91CF910895A8
S11304E0FB0121E030E002C0220F331F8A95E2F7BE
S11304F084A5822399270895EF92FF920F931F9367
S11305007C018FB7F89499270091CF021091D00203
S11305100F5E1E4F1093D0020093CF020151114081
S11305208FBF86E00E94A400C801B7010E9404188E
S11305308A5D9E4F1F910F91FF90EF9008958FB7A2
S1130540F894992722B132E0232722B98FBF089566
S11305507FB7F8946091B200209125023091260271
S11305604091270250912802B99B11C08091B30099
S11305709091B200280F311D411D511D2F5F3F4F37
S11305804F4F5F4F290F311D411D511D04C0260FD0
S1130590311D411D511D872F99278FBFCA01B901F4
S11305A0089588E00E94A4000895DF92EF92FF92DC
S11305B00F931F938FB7F894282F3327D22E90913F
S11305C0B3008091B20047B3981711F041FF02C005
S11305D02FBF71C0809148028823E1F10E94A802D4
S11305E0E0901E02F0901F0200912002109121025F
S11305F02091F1023091F2024091F3025091F40201
S11306006E197F09800B910B621773078407950796
S113061020F01092480271E01EC02E0D3F1D401FB5
S1130620511F8091250290912602A0912702B0913A
S11306302802281B390B4A0B5B0B273E3105410569
S1130640510540F4822F223010F070E005C070E0B4
S113065082E002C070E086EE682F61508091B6009F
S113066083FDFCCF8091B200681709F46F5F20917D
S11306702502309126024091270250912802DA0186
S1130680C9010196A11DB11D860F911DA11DB11DAA
S113069082179307A407B50710F4622F6095809121
S11306A0B60083FDFCCF6093B300DFBE772319F05F
S11306B087E00E94A4001F910F91FF90EF90DF90BC
S11306C00895AFB7F894BB27E1E0E0934802609344
S11306D01E0270931F0280932002909321022093A4
S11306E0F1023093F2024093F3025093F402AFBF4D
S11306F00E94D50208958FB7F894992722B134E067
S1130700232722B98FBF08950F931F93CF93DF93AD
S1130710182F8FB7F894282F3327022F80911302B4
S1130720882379F581E0809313021093D1022FBFBF
S11307302FB7F894332780917A00806880937A00E9
S11307402FBF8FB7F894C82FDD279C2F80910C0200
S11307508230A9F480911302813021F48EE00E944A
S1130760A40009C0823059F48091D10280930C0214
S113077083E080931302CFBF80E090E025C09FBF49
S1130780FBCF8091D102811711F42FBFF5CF812FB8
S11307900E949000882319F085E090E014C0E12FB6
S11307A0E695E695E695FF27EB53FD4F177081E03C
S11307B090E002C0880F991F1A95E2F72081282B38
S11307C0208380E090E00FBFDF91CF911F910F91C4
S11307D008958FB7F894992722B131E0232722B9DD
S11307E08FBF08951F920F920FB60F9211248F930B
S11307F08091B0008093B0008091B60081FDFCCF61
S11308008F910F900FBE0F901F9018951F920F920B
S11308100FB60F9211240F931F932F933F934F936F
S11308205F936F937F938F939F93AF93BF93CF9374
S1130830DF93EF93FF932EB5E091C602F091C702C8
S1130840309739F08091B5029091B602E80FF91F04
S113085020838091B5029091B60201969093B602DE
S11308608093B50280E00E945801C091B502D091F6
S1130870B6022091160230911702C217D30708F06E
S113088042C000918303109184034091C6025091A9
S1130890C702CE010A962817390708F4C901DA01FC
S11308A0AC0FBD1FF801EC0FFD1F9C01215030401F
S11308B015C00115110531F080818EBD0DB407FE00
S11308C0FDCF04C01EBC0DB407FEFDCF8EB541158F
S11308D0510509F08C93219611963196C217D307CE
S11308E040F381E00E9458010115110531F00C0F0D
S11308F01D1FF80180818EBD01C01EBCD093B602BD
S1130900C093B50211C01092C7021092C602109291
S1130910840310928303109217021092160210920D
S1130920B6021092B5028EB5FF91EF91DF91CF918F
S1130930BF91AF919F918F917F916F915F914F91F3
S11309403F912F911F910F910F900FBE0F901F9009
S1130950189578941F920F920FB60F9211240F904E
S11309600FBE0F901F90189578941F920F920FB698
S11309700F9211240F900FBE0F901F90189578942A
S11309801F920F920FB60F9211242F933F938F93C0
S11309909F93AF93BF932FB7F89433278091C102ED
S11309A09091C202A091C302B091C4020196A11D0C
S11309B0B11D8093C1029093C202A093C302B0936D
S11309C0C4022FBFBF91AF919F918F913F912F91FF
S11309D00F900FBE0F901F9018951F920F920FB695
S11309E00F9211242F933F934F935F936F937F93B1
S11309F08F939F93AF93BF93EF93FF9340917800AE
S1130A005091790078948FB7F894992720913B02FC
S1130A10322F3695317021708FBF222329F58091B2
S1130A207A00877F80937A0080918202813021F05E
S1130A30823009F043C00AC0332351F05093CC02F2
S1130A404093CB028FE00E94A40038C0332349F4C2
S1130A508DE790E0019701960197E1F70E94CB00A2
S1130A602DC0109282022AC08FB7F89499278FBFA5
S1130A702FB7F894332780917A00582F5770482F56
S1130A804072987D942B952B8074977B982B906162
S1130A909F77892F992780937A00887D842B852BD3
S1130AA087738061992780937A00887D842B852BB6
S1130AB0877B8069992780937A002FBFFF91EF91FC
S1130AC0BF91AF919F918F917F916F915F914F9162
S1130AD03F912F910F900FBE0F901F9018951F926A
S1130AE00F920FB60F9211242F933F934F935F935E
S1130AF06F937F938F939F93AF93BF93EF93FF93E2
S1130B008091B0008093B0008091B60081FDFCCF4D
S1130B108091B30099270196AA27BB27209125022B
S1130B20309126024091270250912802280F391F44
S1130B304A1F5B1F2093250230932602409327020D
S1130B405093280278940E94D502FF91EF91BF91AF
S1130B50AF919F918F917F916F915F914F913F9151
S1130B602F910F900FBE0F901F90189521E02093A6
S1130B7052022093C8022091840030918500BC0168
S1130B80C9010E94130208958FB7F894282F3327C0
S1130B90922F80910A02882331F4809111028230CD
S1130BA011F42FBF13C09FBF8FB7F894282F33279A
S1130BB080911102882369F482E0809311021092DB
S1130BC00A022FBF0E946101209A289A81E090E0D6
S1130BD008952FBF80E00E94860180E090E0089590
S1130BE04F925F926F927F928F929F92AF92BF9239
S1130BF0CF92DF92EF92FF920F931F93CF93DF93E5
S1130C002C0180911502882309F083C1809185030A
S1130C10853009F07EC10E94C405882309F479C196
S1130C208091DC02882309F074C1B20182E00E9441
S1130C307002882311F490E003C0F20196A59F701E
S1130C4080918302981781F090938302289885EC11
S1130C508EBD0DB407FEFDCF8EB590689EBD0DB45C
S1130C6007FEFDCF8EB5289AE20121968981F20113
S1130C70218140E09927982F88273327822B932BB3
S1130C8087749C7C8154984809F441E0442301F121
S1130C90289886E88EBD0DB407FEFDCF8EB51EBC28
S1130CA00DB407FEFDCF8EB5289A99278F719070E9
S1130CB020914D0240914202240F312D311D43E019
S1130CC0359527954A95E1F7281739070CF421C182
S1130CD0289882EC8EBD0DB407FEFDCF8EB589E059
S1130CE08EBD0DB407FEFDCF8EB5289A0E94DD019E
S1130CF07B018C01B20184E00E947002882319F404
S1130D00E0E0F0E006C0D2018C918550F201E80FDA
S1130D10F11D289881E88EBD0DB407FEFDCF8EB578
S1130D201EBC0DB407FEFDCF8EB5289A8F71893095
S1130D3079F0289882EC8EBD0DB407FEFDCF8EB5F8
S1130D4086E08EBD0DB407FEFDCF8EB5289AE1C0B6
S1130D508FB7F89499272F9A2091840030918500B9
S1130D608FBF2F98289880E68EBDD2019C910DB438
S1130D7007FEFDCF8EB59EBD792F7250773010F4EB
S1130D80672F01C067E0DE01962F4D910DB407FE79
S1130D90FDCF8EB54EBD9150C1F76150C60FD11D28
S1130DA06F5F21962E193F092E553F4F3901882434
S1130DB077FC8094982C6E0C7F1C801E911E3097BB
S1130DC019F4972F961B42C02081E1808281A38071
S1130DD09927AA27BB27BA2FA92F982F882733270B
S1130DE044275527522F442733272227FF2400273F
S1130DF011278701FF24EE242E293F29402B512B54
S1130E00BB24CC24DD242A293B294C295D29822BAF
S1130E10932BA42BB52B86199709A809B9098383A9
S1130E20292F3A2F4B2F552722839D0144275527DD
S1130E3021838B2F9927AA27BB278083C2CF2881A0
S1130E400DB407FEFDCF21968EB52EBD9150B8F797
S1130E500DB407FEFDCF8EB5289A289882EC8EBD7E
S1130E600DB407FEFDCF8EB586E08EBD0DB407FE32
S1130E70FDCF8EB5289A3097D1F12081E18082810F
S1130E80A3809927AA27BB27BA2FA92F982F882791
S1130E90332744275527522F442733272227FF245B
S1130EA0002711278701FF24EE242E293F29402BF8
S1130EB0512BBB24CC24DD242A293B294C295D2930
S1130EC0822B932BA42BB52B860D971DA81DB91D22
S1130ED08383292F3A2F4B2F552722839D014427A3
S1130EE0552721838B2F9927AA27BB278083B201FB
S1130EF081E00E94D101F20160A671A682A693A6A8
S1130F0086E08093850384E08093150280E090E07E
S1130F1002C085E090E0DF91CF911F910F91FF9087
S1130F20EF90DF90CF90BF90AF909F908F907F9085
S1130F306F905F904F900895EF92FF920F931F93DD
S1130F40CF93DF93982F8FB7F894E82E80911302F4
S1130F50833009F045C080910C02891709F040C024
S1130F608091C502882309F04AC03EC0EF2DE69562
S1130F70E695E695FF274F2D5527EB53FD4F9A0134
S1130F802770307081E090E002C0880F991F2A9585
S1130F90E2F78095208128232083C093120211C098
S1130FA02196C230D10511F4C0E0D0E0FC2E8C2F84
S1130FB00E9490008823D1F6C017D10789F74FEF1C
S1130FC050E04093D1028FEF80930C0281E0809334
S1130FD013028EE00E94A400EFBE80E090E015C0F2
S1130FE0EFBE81E090E011C082E080930C02109289
S1130FF0130280917A008F7780937A00EDCF8091ED
S11310001202082F1127E801CBCFDF91CF911F9156
S11310100F91FF90EF9008950F931F93982F1FB790
S1131020F89480911102823099F580910A0289170F
S113103079F58091080220E030E08F3F11F421E03F
S113104030E0232BF1F49FEF90930A028F3F19F4C1
S11310502FEF30E00DC0282F3327F901E05BFD4F5F
S11310608081809308028F3F11F49093090290834A
S11310702093510281E0809311028BE00E94A4002E
S113108005C08FEF80930A021092110201E001C0A3
S113109000E0812F99278FBF1FB7F8948091110228
S11310A0882311F40E944F01812F99278FBF90E06C
S11310B0013009F491E081E09827892F99271F9145
S11310C00F9108951F93982F1FB7F89480911002E1
S11310D0823099F580910702891779F5809105028C
S11310E020E030E08F3F11F421E030E0232BF1F4D5
S11310F09FEF909307028F3F19F42FEF30E00DC05C
S1131100282F3327F901EF5BFD4F8081809305027F
S11311108F3F11F490930602908320933E0281E066
S11311208093100282E00E94A40005C08FEF809398
S113113007021092100221E001C020E0812F9927BC
S11311408FBF90E0213009F491E081E09827892F46
S113115099271F91089580914602823031F481E0ED
S11311608093460284E00E94A40008958093F502CF
S1131170882311F484E001C081E08093460284E076
S11311800E94A4000895AF92BF92CF92DF92EF9293
S1131190FF920F931F93CF93DF938091DC028823F8
S11311A009F402C10E94C405882309F4FDC08FB765
S11311B0F8949927C0914E02D0914F028FBF10929C
S11311C0DC0228988FE88EBD0DB407FEFDCF8EB5E6
S11311D01EBC0DB407FEFDCF8EB5289A982F8091C2
S11311E01502833011F0873031F485E08093850354
S11311F088E080931502A92EBB24A2FE63C08091CF
S11312001502863019F41092150203C0882309F0E0
S113121059C0943009F045C0289886E88EBD0DB4B5
S113122007FEFDCF8EB51EBC0DB407FEFDCFFEB488
S1131230289A2FE1F22280914202982F9695969552
S1131240EF2DE91B8E0F8093420200912202109130
S11312502302F80184A58B7F84A7B80183E00E9450
S1131260D101F801F6A60E94DD017B018C01C0903A
S11312702202D0902302B60181E00E94D101CE194E
S1131280DF092797CE01AA2797FDA095BA2F8E0DC7
S11312909F1DA01FB11FF60180A791A7A2A7B3A706
S11312A00EC0E0912202F091230284A5877F84A7D7
S11312B0E0912202F091230284A58D7F84A785E02A
S11312C080931502A3FE70C080911502843009F04A
S11312D04EC085E08093850310921502809124020C
S11312E0833019F4109224025FC0C0918C03D09112
S11312F08D03CE010E940202882389F18A8129810B
S11313009927982F88273327822B932B87749C7CCB
S11313108154984821F58F812E819927982F882709
S11313203327822B932B8F5F9F4FC9F090E08091DE
S1131330C802882309F491E0992389F012E01093FC
S1131340520281E08093C8028091840090918500CC
S113135069E973E00E9413021093240225C01092DD
S113136024021092470280E00E94B6081DC0853016
S1131370D9F420914D02289886E88EBD0DB407FE5D
S1131380FDCF8EB51EBC0DB407FEFDCF8EB5289AD9
S11313908F71922F96959695891B280F20934D0255
S11313A089E08093150208C090911502992309F4ED
S11313B0E5C2993009F012C2289880E28EBD0DB4BE
S11313C007FEFDCF8EB51EBC0DB407FEFDCF8EB556
S11313D0482F5527433008F496C3842F99278A97BA
S11313E00CF091C31EBCE0912202F09123024083D1
S11313F0542F5250573010F4452F01C047E0DF01FD
S11314001196242FFD0160E070E00DB407FEFDCFBE
S11314108EB51EBC992781936827062E6295607F3E
S11314206025072E762F62956F70062666957627BF
S11314306727660F660F660F6025215031F741500C
S1131440A40FB11D4F5F1196E0912202F091230287
S1131450818190E08770823009F491E0992349F00A
S113146020E030E080912402823081F421E030E0F9
S11314700DC08FB7F894282F332790E08091D402C1
S1131480833008F491E02FBF292F3327232B09F44D
S11314905CC0952F941B18C00DB407FEFDCF8EB50C
S11314A01EBC8C938D916827062E6295607F602503
S11314B0072E762F62956F70062666957627672726
S11314C0660F660F660F6025915030F70DB407FE66
S11314D0FDCF8EB51EBC9B012827022E2295207FAE
S11314E02025032E322F22952F700226269532278F
S11314F02327220F220F220F20250DB407FEFDCF34
S11315008EB51EBC2827022E2295207F2025032E6F
S1131510322F22952F700226269532272327220F59
S1131520220F220F20250DB407FEFDCF8EB5E091CA
S11315302202F091230285A7289A15E010938503CF
S113154010921502232B31F015C20DB407FEFDCF06
S11315508EB5D9C2E0902202F0902302670108946C
S1131560C11CD11CF701818190E0282F33272770FB
S113157030702230310509F491E0809124029923DE
S113158021F1823009F025C1F7019381E0918C03A8
S1131590F0918D038381981709F01BC12230310526
S11315A009F017C180916F008D7F80936F001092B6
S11315B0C802BF0180E00E94D1011092240210925F
S11315C0470280E00E94B60804C18823C9F4C70119
S11315D00E943D028823A1F01093840282E080934C
S11315E0850210928602F70183818093870284E842
S11315F092E00E94F005882319F483E0809324028A
S11316000091840010918500C7010E943D02882347
S113161011F0045E1C4F1093B8020093B70280913E
S11316208400909185009801281B390B121613062B
S1131630A4F480914702882369F490E08091C80261
S1131640882309F491E0992341F0C9010E94B60569
S113165080E801C0806880934702F6018085278175
S11316609927582F44273327422B532B8091290243
S1131670282F3327F901EE0FFF1FE352FD4F80811E
S113168091817091C9028417950769F4F901EA57A9
S1131690FC4F8081871709F467C0872F8F5F809381
S11316A0C90280831DC000E010E080E090E0CDED31
S11316B0D2E0E6E8F3E0DF01682F9C01888199819C
S11316C08417950779F4209329029091C9028C918B
S11316D0891709F449C0892F8F5F8093C9028C93BD
S11316E000E829C08081972F981B091710F4092F4F
S11316F0122F6F5FC901019611962296319685309B
S11317009105D1F66530B9F410932902A12FBB27B6
S1131710FD01EE0FFF1FE352FD4F51834083809183
S1131720C9028F5F8093C902FD01EA57FC4F808391
S1131730A257BC4F1C929091C902892F8F778F3783
S113174079F40F3768F0E6E8F3E0292F20788081F8
S11317508F6789132083319683E0EB38F807B9F754
S113176080912902282F3327F6019281A22FBB27CB
S1131770FD01E257FC4F808180FF07C0FD01EB5261
S1131780FD4F8081981729F102C081608083AB529C
S1131790BD4F9C93DFB6F8948091D4028330B0F4AB
S11317A0E091EE02E80FE33008F0E350FF27EE0F7C
S11317B0FF1FE85EFD4F00811181F182E0828F5F9F
S11317C08093D40285E00E94A40078018D2D99278E
S11317D08FBFF0922302E0922202C3C0892F81506E
S11317E0833008F09CC081508230E0F4309185034E
S11317F03130C1F420E08091C802882309F421E04B
S1131800222381F02F9883E0809352023093C80200
S113181080918400909185006BE273E00E94130232
S113182082E068C0933009F042C080918503833020
S113183009F097C00E94C4058823C9F128988FE84D
S11318408EBD0DB407FEFDCF8EB51EBC0DB407FED4
S1131850FDCF8EB5289A80918100806480938100A9
S113186080E286BB80916F00806280936F009091CC
S11318703D02289888EC8EBD0DB407FEFDCF8EB5D1
S113188090669EBD0DB407FEFDCF8EB5289A2898AC
S113189082EC8EBD0DB407FEFDCF8EB586E08EBD05
S11318A00DB407FEFDCF8EB5289A84E023C0809145
S11318B015028150823000F5809185038530E1F472
S11318C00E94C4058823C1F0289882EC8EBD0DB413
S11318D007FEFDCF8EB583E08EBD0DB407FEFDCFB0
S11318E08EB5289A80916F008F7D80936F0010923F
S11318F0DC0283E08093850390911502913041F4DA
S1131900809185038330B1F52F9A9093850325C088
S1131910923039F580918503833061F51EC097308C
S113192001F50E94C4058823E1F090913D022898B6
S113193088EC8EBD0DB407FEFDCF8EB590669EBDBE
S11319400DB407FEFDCF8EB5289A809185038530AE
S113195021F484E08093850304C088E08093150219
S113196004C080911502883029F41092150283E096
S11319700E94A40080911502882309F580918503B3
S11319808530D1F48091DC028823B1F48091240263
S1131990882391F480914702882371F490E0809128
S11319A0C802882309F491E0992331F00E94AB081E
S11319B080911502882319F489E00E94A400809183
S11319C0C802823009F092C01092C802F09052020C
S11319D0F2E0FF1609F466C023E0F21609F46AC0C7
S11319E081E0F81609F082C02091B7023091B80264
S11319F0809184009091850040914702403829F4F9
S1131A00109247020E94AB0871C08901081B190B90
S1131A1047FF03C010161106ECF0C0914302D091A9
S1131A204402809124028823A9F4CE010E94F00587
S1131A309927882351F48CA58E7F8CA7F0922402D9
S1131A40D0938D03C0938C0329C09927F82E882343
S1131A5029F102C065E0F62E20914702822F9927D2
S1131A608F77019759F4207822602093470280E110
S1131A7098E00E947C020E94B60538C027FF0AC085
S1131A80101611063CF480E880934702C8010E94B6
S1131A90B60502C0109247028F2D09C083E08093DF
S1131AA0470224C0109224021092470280E00E9450
S1131AB0B6081CC080918503823019F4F092850326
S1131AC013C080911502863079F41092150228987B
S1131AD081E88EBD0DB407FEFDCF8EB51EBC0DB4DE
S1131AE007FEFDCF8EB5289A0E94980D8FB7F89403
S1131AF0282F332780913C02813061F081E080936C
S1131B003C022FBF4ACB289A85E08093850310922C
S1131B10150230CF10923C022FBFDF91CF911F915D
S1131B200F91FF90EF90DF90CF90BF90AF9008950A
S1131B308FB7F894282F332780913C02882329F00B
S1131B40806880933C022FBF089581E080933C021B
S1131B502FBF0E94C308089578941F920F920FB666
S1131B600F9211242F933F934F935F936F937F931F
S1131B708F939F93AF93BF93EF93FF93E6E8F0E0C7
S1131B8080819181208131818FB7F8949927309396
S1131B904F0220934E0221E02093DC028FBF0E946B
S1131BA0980DFF91EF91BF91AF919F918F917F918C
S1131BB06F915F914F913F912F910F900FBE0F90B6
S1131BC01F90189578941F920F920FB60F921124BC
S1131BD02F933F934F935F936F937F938F939F9331
S1131BE0AF93BF93EF93FF9380916F008D7F8093AA
S1131BF06F0078949FB7F8948091C802813019F4EB
S1131C0082E08093C802892F99278FBF0E94980D84
S1131C10FF91EF91BF91AF919F918F917F916F91C0
S1131C205F914F913F912F910F900FBE0F901F9096
S1131C3018958FB7F894282F332780913C02815050
S1131C4080933C02803811F02FBF089581E0809387
S1131C503C022FBF0E94C30808951F938FB7F894C6
S1131C60992720913C022F5F20933C028FBF8091E3
S1131C704602882311F015E023C0809115028823C1
S1131C80E1F480918503813049F490E08091C802A9
S1131C90882309F491E0992381F005C0853019F473
S1131CA089E090E00CC083E0809315020E94980DB7
S1131CB085E08093460210E003C085E090E0182F91
S1131CC00E94190E812F99271F9108951F93FC01DB
S1131CD08FE38287809114028F5F80931402838341
S1131CE02FB7F894332780913C028F5F80933C0296
S1131CF02FBF80914602882311F015E00DC0F093A8
S1131D00CE02E093CD0281E0809346021092CA0293
S1131D1084E00E94A40010E00E94190E812F9927EC
S1131D201F910895FF920F931F93CF93DF93F82E83
S1131D308B01EA01622F2D3118F086E090E092C009
S1131D40FA0131968181298170E09927582F44271F
S1131D503327422B532BCA0187749C7C81549848A7
S1131D6009F471E0772349F4CA01807390708164A7
S1131D7098688983892F99278183635F68832FB744
S1131D80F894332780910202909103022FBF888731
S1131D90892F992789872FB7F894332780910402D4
S1131DA02FBF99278C831D82CE010E944D01FC0117
S1131DB0F0820E83812F99278F838FB7F894282F71
S1131DC0332780911002882371F482E080931002FB
S1131DD0109207022FBFCE010E94660E9927182F7A
S1131DE0882399F00FC02FBFD0934002C0933F02C5
S1131DF08FB7F894C82FDD272C2F809110028823E9
S1131E0099F406C080E00E946208812F99272AC0B5
S1131E1081E08093100210923E0282E00E94A400AE
S1131E20CFBF80E090E01EC0809141028F3F89F4D3
S1131E30E0910602EE2369F010C01092050204C07E
S1131E40FF27EF5BFD4F10821092060280E090E0C6
S1131E5002C085E090E02FBF05C0809105028F3F4E
S1131E6079F7EBCFDF91CF911F910F91FF900895F8
S1131E70EF92FF920F931F93CF93DF9380910B0206
S1131E809927019664E070E00E941818682F8093E7
S1131E900B0200E0462F5527FA01EE0FFF1FE7540F
S1131EA0FD4FC081D181209799F0E62FE695E69504
S1131EB0E695FF27E051FD4F808199279A0127700D
S1131EC0307002C0959587952A95E2F780FF0DC082
S1131ED0CA01019664E070E00E941818682F0F5F31
S1131EE00430C1F600930B021FC060930B026430F0
S1131EF0D8F4E88083EFE80EFF240F811127102F18
S1131F0000278E819927082B192BCE010E944D01A1
S1131F10FC012E2DAE01B80180810E94920E88230F
S1131F2019F08DE00E94A400DF91CF911F910F91D1
S1131F30FF90EF900895EF92FF920F931F93CF932A
S1131F40DF93E82E8B01F42E83E08E1518F481E0E4
S1131F5090E03BC0CE2DDD27CC0FDD1FC754DD4FF5
S1131F6088819981892B19F085E090E02EC07983CE
S1131F706883EDE0FE0EFB01F082F3EFFF0E80912B
S1131F800B02843018F480E090E01FC0CB010E9463
S1131F904D01FC018081F80167817727762F662740
S1131FA026813327622B732BE0920B022F2DA8017D
S1131FB00E94920E9927282F882329F084E0809389
S1131FC00B0219821882822F9927DF91CF911F91DA
S1131FD00F91FF90EF9008950F931F93CF93DF938A
S1131FE0EC010E944D018C018FEF8E838F8381E081
S1131FF0F801808342E0BE0180E00E949B0F8823A9
S113200099F70E949F02DF91CF911F910F9108953C
S1132010CF93DF93EC018091B3029091B4028E834D
S1132020892F99278F83CE010E944D01FC0183E003
S1132030808342E0BE0182E00E949B0F882321F04E
S1132040CE010E94EC0F02C00E949F02DF91CF914B
S11320500895282FCB01213079F0213028F0223047
S113206089F02330E1F416C04423C9F062E00E94F1
S113207046010E94EC0F0895442389F080E00E94F9
S1132080A4000895442359F062E00E9446010E948E
S113209008100895442319F081E00E94A4000895D3
S11320A02F923F924F925F926F927F928F929F9264
S11320B0AF92BF92CF92DF92EF92FF920F931F9352
S11320C0CF93DF93CDB7DEB7E8970FB6F894DEBFB2
S11320D00FBECDBF873009F4F3C2883098F4833043
S11320E009F4F1C0843038F4813009F461C08230DD
S11320F008F0AAC025C0853009F463C1863008F011
S113210083C2F1C08B3009F42DC38C3038F489308C
S113211009F4B0C38A3008F011C307C38D3009F441
S1132120D5C38D3038F08E3009F4E2C38F3009F016
S113213023C4FDC38091F002882309F0A2C31CC408
S113214066E08E010F5F1F4FC8010E944601FC012B
S113215080910E0290910F028183892F99278083A9
S11321608091B3029091B4028383892F992782834B
S113217080910002909101028583892F992784839D
S11321808091B3029091B4028F83892F9927888715
S1132190C8010E944D01FC0182E0808346E0B80141
S11321A081E00E949B0F882309F44BC080E046C065
S11321B06CE17E010894E11CF11CC7010E944601F8
S11321C08C0181E00E94840380E00E94840380915A
S11321D00E0290910F02F8018183892F9927808341
S11321E08091D2029091D3028383892F992782838D
S11321F08091DA029091DB028583892F9927848369
S113220080910002909101028783892F9927868308
S11322108091B3029091B4028F83892F9927888784
S1132220C7010E944D01FC0184E080834CE1B701A9
S113223083E00E949B0F882321F081E00E94A40088
S11322409BC30E94E90398C32FB7F8943327809166
S11322503E028093070282E0809310022FBF809198
S11322600702882309F088C380913F0290914002BD
S11322700E94660EA82EBB24AA2009F47DC380E028
S11322800E946208C0903F02D0904002C6010E94A2
S11322904D01F0900B02F3E0FF1508F46DC3EF2D30
S11322A0FF27EE0FFF1FE754FD4F008111810C152E
S11322B01D0509F061C3118210820E94380F4A2D56
S11322C0B8018F2D7BC08091460210924602853062
S11322D009F452C3863009F44FC3873009F44CC360
S11322E08093460249C32FB7F894332780913C0268
S11322F08F5F80933C022FBF40914602413081F5AD
S11323008091CA028F5F8093CA02863048F520917B
S1132310CD023091CE02809147028823C1F490E02F
S11323208091C802882309F491E0992381F03093C5
S1132330440220934302409347028BED91E10E94B3
S11323407C020E94B6051092F50283E004C085E089
S11323508093F50282E0809346020E94190E0CC31A
S1132360109246020E94190EC090F5020091CD020F
S11323701091CE02F80182858F3309F0FDC280E00E
S11323800E946208C8010E944D01D0900B02F3E044
S1132390FD1508F4F1C2ED2DFF27EE0FFF1FE754E2
S11323A0FD4FE080F180E016F10609F0E5C21182EC
S11323B010820E94380F4C2DB7018D2D0E942910D8
S11323C0DBC28FB7F894282F33278091D402882357
S11323D009F4CCC2E091EE02FF27EE0FFF1FE85E86
S11323E0FD4F008111812FBFF8018285F780E680BF
S11323F08F3309F0D3C0C8010E944D01FC01D08085
S1132400D801CC908F2D9927582F44278E2D9927AA
S1132410482B592B8FB7F8949927209102023091B9
S113242003028FBF4217530721F04F5F5F4F09F03C
S1132430CFC0B801645F7F4F2C2D2D508D2D99276F
S1132440823009F442C0833020F4813009F0C0C0E6
S113245007C0833009F459C0843009F0B9C080C082
S11324608081813009F0B4C0223009F0B1C0F80194
S1132470848525859927982F88273327822B932BAA
S113248020910E0230910F022817390708F0A0C0DE
S11324900E947B03F801818520859927982F88273E
S11324A03327822B932B9093B4028093B3028485B9
S11324B025859927982F88273327822B932B909350
S11324C00F0280930E0280E048C08081823009F0C0
S11324D07FC02C3109F07CC0F801848525859927BB
S11324E0582F44273327422B532B80910E0290916F
S11324F00F028417950708F06BC050930F024093A6
S11325000E02CB010E94081063C08081833009F061
S11325105FC0223009F05CC0F801848525859927C5
S1132520982F88273327822B932B20910E023091EA
S11325300F022817390708F04BC00E947B03F801EB
S1132540848525859927982F88273327822B932BD9
S113255090930F0280930E0281E00E94A40038C081
S11325608081843009F034C0263091F5F8018485E7
S113257025859927582F44273327422B532B8091A5
S11325800E0290910F028417950710F550930F02D5
S113259040930E02CB010E94EC0F1AC08F2D992795
S11325A0582F44278E2D9927482B592B8FB7F894F1
S11325B0992720910202309103028FBF42175307DB
S11325C019F04F5F5F4F21F48FB7F89499278FBFAD
S11325D09FB7F8948091EE02E82FFF27EE0FFF1FBC
S11325E0E85EFD4F118300838F5F8093EE0283309A
S11325F010F01092EE028091D40281508093D402A4
S1132600892F99278FBFDDCE6FB768ABF8942090E0
S1132610490230904A0240904B0250904C0266248A
S113262077248824FEE4AF2EE3E8BE2ECC24DD24F8
S1132630EE24FF2400E010E0222D332D442D552DEF
S1132640662D772D882D90E00E94831629AB3AAB36
S11326504BAB5CAB6DAB7EAB8FAB98AF822E932E46
S1132660A42EB52E2401350100E20E948117A22E6A
S1132670B32EC42ED52EA3019201569547953795B6
S113268027952A0D3B1D4C1D5D1D57FF05C05F7727
S11326902F5F3F4F4F4F5F4F2093490230934A02C1
S11326A040934B0250934C02A8A98A2F99278FBFBD
S11326B08FB7F89499273093D0022093CF023CC06F
S11326C080913A02882361F52091E7023091E80273
S11326D04091E9025091EA02EFB7F894FF27609124
S11326E01E0270911F028091200290912102E090BD
S11326F0F102F090F2020091F3021091F4026E0DD7
S11327007F1D801F911FEFBF2093E7023093E802E3
S11327104093E9025093EA0210923A020E94610344
S11327200E94A8020E94D10227C10E94A8028FB76A
S1132730F8949927109248028FBF1EC18FB7F8945E
S113274099271092C7021092C60210928403109225
S1132750830310921702109216021092B60210927E
S1132760B502EACF2FB7F8943327809151028093B2
S11327700A0282E0809311022FBF80910A0288230B
S113278009F0FAC0209A289A80918503882309F0D9
S113279075C08EEF91E0019701960197E1F71698C5
S11327A02F9886E090E0019701960197E1F7169A39
S11327B0289883EC8EBD0DB407FEFDCF8EB51EBCEC
S11327C00DB407FEFDCF8EB5289A289882EC8EBDF5
S11327D00DB407FEFDCF8EB588E08EBD0DB407FEA7
S11327E0FDCF8EB5289A8EEF91E00197019601975F
S11327F0E1F728988EEC8EBD0DB407FEFDCF8EB5A3
S11328008DE48EBD0DB407FEFDCF8EB5289A2898B1
S113281089EC8EBD0DB407FEFDCF8EB587EC8EBD61
S11328200DB407FEFDCF8EB5289A289885EC8EBD91
S11328300DB407FEFDCF8EB580E88EBD0DB407FE46
S1132840FDCF8EB5289A109283028BE080933D02CF
S1132850289888EC8EBD0DB407FEFDCF8EB58BE6AF
S11328608EBD0DB407FEFDCF8EB5289A2F9A81E058
S11328708093850380E00E940C087EC00E94980D1E
S11328807BC061E0D62EEE24FF2409EB12E0909188
S1132890F0028D2D892371F0F8016081718111821C
S11328A010828D2D809598239093F00243E08E2D15
S11328B00E9429100894E11CF11C0E5F1F4FF8E0E0
S11328C0EF16F10409F458C0DD0CE1CF10910B02AE
S11328D0E12FFF27EE0FFF1FE754FD4FE080F1804B
S11328E0118210820E94380F41E0B701812F66CD1A
S11328F08FB7F89499272091D10220930C0223E0FA
S1132900209313028FBF80910C02882319F0813029
S113291099F506C081E0809382021092EF0204C010
S1132920809382028093EF020E94CB0025C0109214
S113293082020091CB021091CC028091EF02882395
S113294019F0813049F404C080E00E949C0709C05A
S113295081E00E949C070CC0882319F0813061F447
S113296007C01093DB020093DA0206C02FBF04C035
S11329701093D3020093D202E8960FB6F894DEBF08
S11329800FBECDBFDF91CF911F910F91FF90EF90BC
S1132990DF90CF90BF90AF909F908F907F906F907B
S11329A05F904F903F902F9008958091EB028F3F5E
S11329B0B1F0282F3327F901E65DFD4F8081809324
S11329C0EB028F3F11F480938B038FEF80832F3FB3
S11329D031F0822F0E94501081E090E0089580E051
S11329E090E008950F931F930FB7F89414BE88E1F5
S11329F00FB6F89480936000109260000FBE40E11F
S1132A0050E06FEF70E08AE292E00E9481188FEF4D
S1132A108093EB0280938B0356985E9854985C984D
S1132A2080916F008F7D80936F00209A289A279A57
S1132A302F980E9A169A83E592E09093230280933E
S1132A40220210924D028AE58093420281E0809333
S1132A50810080E28093B60083E08093B10080918E
S1132A608400909185004AE720918400309185008C
S1132A702817390708F44150442311F0C901F4CF51
S1132A809091B2008091B2008917E1F32091840003
S1132A90309185009091B2008091B2008917E1F3E2
S1132AA08091840090918500821B930B409665E091
S1132AB0969587956A95E1F79093ED028093EC02E1
S1132AC01092B1008091B1008093810080918100C7
S1132AD08093B6001092B200109285001092840088
S1132AE08FEF87BB87B386BB8091B6008571E1F712
S1132AF00A9A099A089A129A119A109A18B88FEF9A
S1132B0087B90C98149810927A001092850010924C
S1132B10840080916F00816080936F0080918100B8
S1132B20887F8260809381000E94D5148823E1F716
S1132B301092C5028FEF8093500280E00E948601BC
S1132B40182F8091B60080628093B6008091B60001
S1132B5081FDFCCF82E08093B0008091B60080FDBF
S1132B60FCCF83E08093B1008091B60083FDFCCF5D
S1132B7086EE8093B3008091700082608093700031
S1132B800E94D50280910002909101020196AA2729
S1132B90BB278093490290934A02A0934B02B093BF
S1132BA04C0286EF92E090931902809318028F965C
S1132BB090931B0280931A0284E593E090931D0284
S1132BC080931C028FEF9FEF9093DE028093DD02CF
S1132BD09093E0028093DF029093E2028093E102FB
S1132BE09093E4028093E3029093E6028093E502DB
S1132BF0809100028295807F809314028FEF8093EE
S1132C0041020E94D5148823E1F7802F99278FBFB2
S1132C10789411980E942D0E8FB7F894482F552759
S1132C2057C080917000992783709070892B19F494
S1132C30E5E0F0E014C08091B6008A71E1F780917C
S1132C40B3009091B200891B8C3038F08091B200AF
S1132C50853F18F4E3E0F0E002C0E2E0F0E08091A8
S1132C606E00867009F580916F008E72E9F4809190
S1132C7071008E72C9F40CB407FC16C08091C100B7
S1132C80887191F48091C900887171F48091BC00BD
S1132C9082FD0AC080917A0087FF03C081E090E042
S1132CA005C085E090E002C080E090E023B78E1775
S1132CB008F4E82FFF27E453FF4FE491207F2160BD
S1132CC0E22BE3BF78948895F89483B78E7F83BF13
S1132CD08091EB028F3F09F4A4CF282F3327F90109
S1132CE0E65DFD4F80818093EB028F3F11F480936A
S1132CF08B038FEF80832F3F09F493CF4FBF822F35
S1132D000E94501089CFACE2B0E0E9E8F6E10C94FF
S1132D104A18222E332E442E552E662E772E882EB8
S1132D20992EFE013196A8E01192AA95E9F729821D
S1132D303A824B825C826D827E828F829886FE010B
S1132D403996B8E01192BA95E9F7A986BA86CB8686
S1132D50DC86ED86FE860F87188B89819A81AB818C
S1132D60BC8189A79AA7ABA7BCA77C018D018FEF73
S1132D709FEFA0E0B0E0E822F9220A231B2389A5F3
S1132D809AA5ABA5BCA51D014424552489859A8523
S1132D90AB85BC858DA39EA3AFA3B8A75C016D01D1
S1132DA08FEF9FEFA0E0B0E0A822B922CA22DB2275
S1132DB08DA19EA1AFA1B8A53D0188249924C80185
S1132DC0B701A60195010E942B1869A37AA38BA3CE
S1132DD09CA3C801B701A40193010E942B187B0195
S1132DE08C01C201B101A60195010E942B185B015F
S1132DF06C01C201B101A40193010E942B183B0193
S1132E004C01EA0CFB1C0C1D1D1D89A19AA1ABA150
S1132E10BCA19D01442755272E0D3F1D401F511F66
S1132E202A153B054C055D0540F480E090E0A1E0E7
S1132E30B0E0680E791E8A1E9B1ECA01AA27BB2712
S1132E40860D971DA81DB91D8D8F9E8FAF8FB8A3BA
S1132E50A9013327222789A19AA1ABA1BCA1A07003
S1132E60B070280F391F4A1F5B1F298F3A8F4B8F71
S1132E705C8FA98CBA8CCB8CDC8CED8CFE8C0F8D8A
S1132E8018A1FE01719698E011929A95E9F7ED8ADE
S1132E90FE8A0F8B188F2D813E814F8158856DA13D
S1132EA07EA18FA198A50E942B183B014C012D8572
S1132EB03E854F85588969A57AA58BA59CA50E9456
S1132EC02B182D893E894F89588D260F371F481F8F
S1132ED0591F260D371D481D591D2D8B3E8B4F8BB9
S1132EE0588F6D887E888F88988C2A2D3B2D4C2D89
S1132EF05D2D662D772D882D992DE2E1AC960C94ED
S1132F006618A0E1B0E0E7E8F7E10C944A18222E35
S1132F10332E442E552E662E772E882E992E00237E
S1132F2009F466C088E0FE01319611928A95E9F7AA
S1132F3029833A834B835C836D837E838F82988756
S1132F40E0E2E01B1E16CCF52D813E814F815885B1
S1132F50602F772767FD7095DA01C901062E04C03A
S1132F60B695A795979587950A94D2F78D879E87EE
S1132F70AF87B88B04C0220F331F441F551FEA9537
S1132F80D2F789819A81AB81BC8104C0B695A7959B
S1132F90979587956A95D2F7282B392B4A2B5B2B6B
S1132FA029873A874B875C8729843A844B845C84DD
S1132FB06D847E848F8498881BC01D861E861F8620
S1132FC0188A2E2F332727FD3095309521953F4FB2
S1132FD08D819E81AF81B88504C0B695A7959795DC
S1132FE087952A95D2F789879A87AB87BC87DCCFE8
S1132FF0222D332D442D552D662D772D882D992D79
S1133000E2E160960C946618AA1BBB1B51E107C051
S1133010AA1FBB1FA617B70710F0A61BB70B881F64
S1133020991F5A95A9F780959095BC01CD010895F3
S113303097FB092E07260AD077FD04D0E5DF06D0DA
S113304000201AF4709561957F4F0895F6F79095D6
S113305081959F4F0895629FD001739FF001829FD5
S1133060E00DF11D649FE00DF11D929FF00D839F13
S1133070F00D749FF00D659FF00D9927729FB00DB0
S1133080E11DF91F639FB00DE11DF91FBD01CF01C3
S1133090112408952F923F924F925F926F927F92E4
S11330A08F929F92AF92BF92CF92DF92EF92FF9254
S11330B00F931F93CF93DF93CDB7DEB7CA1BDB0B00
S11330C00FB6F894DEBF0FBECDBF09942A883988A5
S11330D048885F846E847D848C849B84AA84B984AC
S11330E0C884DF80EE80FD800C811B81AA81B981B8
S11330F0CE0FD11D0FB6F894DEBF0FBECDBFED01CC
S11331000895DC0101C06D9341505040E0F70895EB
S1053110FFCFEB
S11131120100010022FFFFFFFFFFFF04020087
S9030000FC
