S01700006275696C642F697269732F6D61696E2E7372656343
S11300000C9487000C94A6000C94A6000C94A600F3
S11300100C94A6000C94A6000C94A6000C94A600C4
S11300200C94A6000C94A6000C94A6000C94A600B4
S11300300C94A6000C9433060C94A6000C9484042F
S11300400C9420110C9458110C945C050C946705C5
S11300500C9472050C94A6000C94A6000C94A600B3
S11300600C94A5040C94A6000C94A6000C94A60071
S11300700C94A6000C94A0050C94A6000C94A60065
S11300800C94A6000C94A6000C94A6000C94A60054
S11300900C94A6000C94A6000C94A6000C94A60044
S11300A00C94A6000C94A6000C94A6000C94A60034
S11300B00C94A6000C94A6000C94A6000C94A60024
S11300C00C94A6000C94A6000C94A600F6111B1226
S11300D09112AC12C912D512E1121D133313661317
S11300E0B813C8134F14061562157615F0112C16A3
S11300F040166516681671168416E316141717173A
S11301003C173F174A175E1700020E060C04112411
S11301101FBECFEFD1E2DEBFCDBF12E0A0E0B2E060
S1130120E0E5F7E300E00BBF02C007900D92A031B9
S1130130B107D9F714E0A0E1B2E001C01D92A838DC
S1130140B107E1F70E9410180C94A71B0C9400004F
S11301508FB7F894992708958FBF0895982F96958F
S113016096959695ECE3F2E0E90FF11D877021E096
S113017030E002C0220F331F8A95E2F78081822388
S113018099270895282F9FB7F894E82FFF27EE5B4F
S1130190FD4F80818F3F81F4E0918104E21771F477
S11301A00BC020933A0404C0FF27EE5BFD4F20836D
S11301B02093810420E007C025E005C080913A0423
S11301C08F3F91F7EECF892F99278FBF822F9927E1
S11301D008950F931F93CF93DF93182F8FB7F8943D
S11301E0282F3327022F80912202882379F581E07A
S11301F0809322021093AB022FBF2FB7F8943327BA
S113020080917A00806880937A002FBF8FB7F8942A
S1130210C82FDD279C2F80910D028230A9F4809194
S11302202202813021F487E10E94C20009C0823099
S113023059F48091AB0280930D0283E080932202F3
S1130240CFBF80E090E01FC09FBFFBCF812F0E94F3
S1130250AE00882319F085E090E014C0E12FE69504
S1130260E695E695FF27E45CFD4F177081E090E08A
S113027002C0880F991F1A95E2F72081282B20834A
S113028080E090E00FBFDF91CF911F910F9108950F
S113029080912702882319F081E090E0089581E09D
S11302A00E94E9009927282F882319F481E080937C
S11302B02702822F99270895982F969596959695BB
S11302C0E8E6F2E0E90FF11D877021E030E002C0BA
S11302D0220F331F8A95E2F780818223992708959C
S11302E09FB7F894292F3327422F90910D02981726
S11302F041F480912202833021F42FBF81E090E009
S113030008954FBF80E090E00895809170048823A1
S113031011F0813011F478E008C0882329F081308D
S113032019F02FE170E002C070E021E0622FEFB716
S1130330F894809166028E7F8093660280917C009F
S1130340982F9F71829586958695837019F080E029
S113035090E012C0822F8850863118F081E090E03E
S11303600BC040E050E03327892F9927281739071D
S113037011F441E050E0CA01982F9170990F8091D7
S113038066028178262F2F71422F440F440F892B48
S1130390842B80936602332720937C00783059F5B0
S11303A080913B0490913C0421E08638920718F038
S11303B087E090E01FC0833C910518F086E090E050
S11303C019C08136910518F085E090E013C08033A0
S11303D0910518F084E090E00DC08831910518F083
S11303E083E090E007C00C9718F082E090E002C030
S11303F080E090E0782F7770887D872B886D99272F
S113040080937A008E2F99278FBF0895EF920F93D0
S11304101F93AE2D99E0899FF0011124E153FC4F05
S113042040835183628373830483158326833783D4
S1130430A17080858E7F8A2B8260808789E00E94EC
S1130440C2001F910F91EF9008957FB7F8946091C7
S1130450B20020913D0230913E0240913F02509102
S11304604002B99B11C08091B3009091B200280F53
S1130470311D411D511D2F5F3F4F4F4F5F4F290FBE
S1130480311D411D511D04C0260F311D411D511D3B
S1130490872F99278FBFCA01B901089580911F0240
S11304A0882319F081E090E0089580E00E94E9003B
S11304B09927282F882319F481E080931F02822F23
S11304C099270895982F969596959695EEECF3E0D6
S11304D0E90FF11D877021E030E002C0220F331FC5
S11304E08A95E2F780818223992708958FB7F8943B
S11304F0992722B131E0232722B98FBF0895CF93E2
S1130500DF93FC01DC0111962181662351F0ED019A
S113051089819927982F882733272062822B932B50
S113052009C0ED0189819927982F88273327822BC9
S1130530932B8F7D8183892F99278983DF91CF9195
S11305400895882319F08CB5806402C08CB58F7B24
S11305508CBD08950F931F93982F1FB7F894809123
S11305601A02823099F580910A02891779F58091EF
S1130570080220E030E08F3F11F421E030E0232B2B
S1130580F1F49FEF90930A028F3F19F42FEF30E0BC
S11305900DC0282F3327F901EE5AFC4F8081809338
S11305A008028F3F11F49093090290832093530320
S11305B081E080931A028FE00E94C20005C08FEF91
S11305C080930A0210921A0201E001C000E0812F18
S11305D099278FBF1FB7F89480911A02882311F4CA
S11305E00E94A102812F99278FBF90E0013009F466
S11305F091E081E09827892F99271F910F91089501
S1130600882319F08CB5806802C08CB58F778CBDB7
S113061008950F931F9380E00E94A1020FB7F894EE
S11306201127229A2398219A8CB580618CBD80E091
S11306300E9400038DB581608DBD8CB5877F8CBD14
S11306408CB58B7F8CBD8CB58E7F8CBD81E00E9478
S1130650A1020FBF1F910F9108958FB7F8942091B5
S1130660C9033091CA034091CB035091CC03E0916C
S11306708400F0918500B09B08C02F5F3F4F4F4F1F
S11306805F4FE0918400F091850099278FBFC901E5
S1130690772766279F0144275527622B732B842BCA
S11306A0952B0895FC0180A9826080AB08958C96F7
S11306B00895AC01EFB7F89420918400309185003F
S11306C0C901841B950B03968617970720F0B9017F
S11306D06D5F7F4F02C0640F751F6115710511F4C2
S11306E061E070E06150704070938900609388000D
S11306F082E086BB80916F00826080936F008E2FB2
S113070099278FBF0895FC01828121819927982F11
S113071088273327822B932B85FF1FC087749C7CEB
S113072081549848D1F4878146812FB7F8943327B0
S113073060910202709103022FBF20E09927982F45
S113074088275527842B952B8617970709F021E0D6
S113075081E02827822F9927089580E090E008956A
S1130760EF92FF920F931F937C018FB7F894992710
S11307700091690210916A020F5E1E4F10936A0283
S113078000936902015111408FBF8DE00E94C200A5
S1130790C801B7010E942A1B8A5D9E4F1F910F91C9
S11307A0FF90EF900895FC0182A593A50895DF9230
S11307B0EF92FF920F931F938FB7F894282F33274C
S11307C0D22E9091B3008091B20047B3981711F0E4
S11307D041FF02C02FBF71C08091AA028823E1F1BA
S11307E00E942502E0903302F09034020091350219
S11307F0109136022091740430917504409176046E
S1130800509177046E197F09800B910B621773075F
S11308108407950720F01092AA0271E01EC02E0DE5
S11308203F1D401F511F80913D0290913E02A091B7
S11308303F02B0914002281B390B4A0B5B0B273E49
S113084031054105510540F4822F223010F070E04B
S113085005C070E082E002C070E086EE682F61504F
S11308608091B60083FDFCCF8091B200681709F433
S11308706F5F20913D0230913E0240913F025091C2
S11308804002DA01C9010196A11DB11D860F911D17
S1130890A11DB11D82179307A407B50710F4622F99
S11308A060958091B60083FDFCCF6093B300DFBEFA
S11308B0772319F088E00E94C2001F910F91FF90E6
S11308C0EF90DF900895AFB7F894BB27E1E0E09391
S11308D0AA0260933302709334028093350290939A
S11308E03602209374043093750440937604509335
S11308F07704AFBF0E94D70308956D3118F080E0EC
S113090090E008950C9608951F920F920FB60F92DF
S113091011248F938091B0008093B0008091B60031
S113092081FDFCCF8F910F900FBE0F901F901895F3
S11309301F93182F81E00E94A1021EBD0DB407FE73
S1130940FDCF8EB599271F9108951F920F920FB670
S11309500F9211248F929F92AF92BF92CF92DF9207
S1130960EF92FF920F931F932F933F934F935F93B5
S11309706F937F938F939F93AF93BF93CF93DF93A3
S1130980EF93FF932EB5E091EA03F091EB033097D8
S113099039F08091BF039091C003E80FF91F2083C1
S11309A08091BF039091C00301969093C0038093FC
S11309B0BF0380E00E940003C091BF03D091C00335
S11309C080912B0290912C02C817D90708F046C0D9
S11309D000917804109179048090EA039090EB03DD
S11309E00F2EFAE0AF2EBB24F02DAC0EBD1E8A15DF
S11309F09B0508F45C016401CC0EDD1E7801EC0E4D
S1130A00FD1E15C00115110519F0F701808101C003
S1130A1080E00E9498048114910411F0F60180830F
S1130A2021960894C11CD11C0894E11CF11CC50139
S1130A300197C817D90730F381E00E94000301151C
S1130A40110531F00C0F1D1FF80180818EBD01C00E
S1130A501EBCD093C003C093BF0311C01092EB031C
S1130A601092EA03109279041092780410922C02E6
S1130A7010922B021092C0031092BF038EB5FF9107
S1130A80EF91DF91CF91BF91AF919F918F917F9122
S1130A906F915F914F913F912F911F910F91FF9013
S1130AA0EF90DF90CF90BF90AF909F908F900F907A
S1130AB00FBE0F901F90189578941F920F920FB647
S1130AC00F9211240F900FBE0F901F9018957894D9
S1130AD01F920F920FB60F9211240F900FBE0F901A
S1130AE01F90189578941F920F920FB60F921124AD
S1130AF02F933F938F939F93AF93BF932FB7F89404
S1130B0033278091C9039091CA03A091CB03B0917C
S1130B10CC030196A11DB11D8093C9039093CA0310
S1130B20A093CB03B093CC032FBFBF91AF919F9100
S1130B308F913F912F910F900FBE0F901F9018959A
S1130B401F920F920FB60F9211242F933F934F933E
S1130B505F936F937F938F939F93AF93BF93EF9321
S1130B60FF93409178005091790078948FB7F8946E
S1130B70992720916602322F3695317021708FBFEC
S1130B802223B1F580917A00877F80937A00809147
S1130B908A03813021F0823009F054C008C0332325
S1130BA041F0509321044093200488E11EC0332374
S1130BB019F40E94850146C010928A038091700442
S1130BC0882321F0813009F03DC008C01092B3029F
S1130BD0509363024093620286E107C01092A4021C
S1130BE050937204409371048DE10E94C2002AC0A4
S1130BF08FB7F89499278FBF2FB7F8943327809134
S1130C007A00582F5770482F4072987D942B952B5B
S1130C108074977B982B90619F77892F9927809375
S1130C207A00887D842B852B877380619927809334
S1130C307A00887D842B852B877B80699927809314
S1130C407A002FBFFF91EF91BF91AF919F918F9148
S1130C507F916F915F914F913F912F910F900FBEB4
S1130C600F901F9018951F920F920FB60F92112498
S1130C702F933F934F935F936F937F938F939F93A0
S1130C80AF93BF93EF93FF938091B0008093B00034
S1130C908091B60081FDFCCF8091B3009927019625
S1130CA0AA27BB2720913D0230913E0240913F028A
S1130CB050914002280F391F4A1F5B1F20933D02A9
S1130CC030933E0240933F025093400278940E9436
S1130CD0D703FF91EF91BF91AF919F918F917F9136
S1130CE06F915F914F913F912F910F900FBE0F9095
S1130CF01F90189521E020932904209351032091FB
S1130D00840030918500BC01C9010E9459030895F3
S1130D100F931F93CF93DF93182F0FB7F8948091FD
S1130D201A02882311F40E940903802F99278FBF88
S1130D308FB7F894C82FDD272C2F80911A028823AF
S1130D4061F481E080931A02109353038FE00E94B0
S1130D50C200CFBF80E090E021C0E12FFF27EE5A10
S1130D60FC4F80818F3F89F4E0910902E11789F4F7
S1130D700CC01093080204C0FF27EE5AFC4F1083E6
S1130D801093090280E090E002C085E090E02FBF5C
S1130D9005C0809108028F3F79F7EBCFDF91CF91A7
S1130DA01F910F910895AF92BF92CF92DF92EF926D
S1130DB0FF920F931F93CF93DF935B016C01C0E00D
S1130DC0D0E0EFECF3E07C2F608561FFA8C02081C8
S1130DD0318142815381E480F58006811781D601F7
S1130DE0C501821B930BA40BB50B8E159F05A007A1
S1130DF0B10708F494C060FF03C06D7F608708C02A
S1130E002E0D3F1D401F511F208331834283538386
S1130E10713089F0713020F0723009F086C045C01D
S1130E2080913A0290913B02892B09F47EC087E0BD
S1130E300E94C2007AC09FB7F89420911C0222231A
S1130E4019F421E030E00FC080910C02813019F0D8
S1130E5020E030E008C040E050E02150223010F49F
S1130E6041E050E09A01892F99278FBF222309F48A
S1130E705CC08FB7F894082F1127902F80910C0233
S1130E80813009F04AC080911C02813011F482E162
S1130E9037C0823009F041C080912A0480930C024B
S1130EA083E080931C020FBF40C09FB7F894209149
S1130EB02402222319F421E030E00FC080910E02B5
S1130EC0813019F020E030E008C040E050E02150CB
S1130ED0223010F441E050E09A01892F99278FBF06
S1130EE0222319F18FB7F894082F1127902F80919E
S1130EF00E02813091F480912402813021F489E141
S1130F000E94C200D0CF823041F48091600280936D
S1130F100E0283E080932402C6CF9FBF06C02196B1
S1130F203996C330D10509F04ECF89E00E94C20042
S1130F30DF91CF911F910F91FF90EF90DF90CF90B1
S1130F40BF90AF900895EF92FF920F931F93CF93AA
S1130F50DF93982F8FB7F894E82E80912202833084
S1130F6009F045C080910D02891709F040C08091B5
S1130F703C02882309F04AC03EC0EF2DE695E69571
S1130F80E695FF274F2D5527E45CFD4F9A01277006
S1130F90307081E090E002C0880F991F2A95E2F733
S1130FA08095208128232083C093210211C021969B
S1130FB0C230D10511F4C0E0D0E0FC2E8C2F0E9489
S1130FC0AE008823D1F6C017D10789F74FEF50E060
S1130FD04093AB028FEF80930D0281E08093220255
S1130FE087E10E94C200EFBE80E090E015C0EFBE32
S1130FF081E090E011C082E080930D021092220201
S113100080917A008F7780937A00EDCF80912102CE
S1131010082F1127E801CBCFDF91CF911F910F91BA
S1131020FF90EF9008958FB7F894282F3327922FCD
S113103080910A02882331F480911A02823011F4DB
S11310402FBF13C09FBF8FB7F894282F33278091E9
S11310501A02882369F482E080931A0210920A0229
S11310602FBF0E940903209A289A81E090E00895F6
S11310702FBF80E00E94880680E090E008954F92A0
S11310805F926F927F928F929F92AF92BF92CF9214
S1131090DF92EF92FF920F931F93CF93DF932C0174
S11310A080912A02882309F04DC180917A04853009
S11310B009F048C10E941308882309F443C18091B0
S11310C02B04882309F03EC1E201E096F20180A9D5
S11310D082FD02C090E003C0F20192A99F7080914A
S11310E08B03981781F090938B03289885EC8EBD21
S11310F00DB407FEFDCF8EB590689EBD0DB407FEFE
S1131100FDCF8EB5289A42010894811C911CF401EC
S11311108181F201218140E09927982F8827332784
S1131120822B932B87749C7C8154984809F441E06A
S1131130442301F1289886E88EBD0DB407FEFDCF47
S11311408EB51EBC0DB407FEFDCF8EB5289A992727
S11311508F7190702091B4024091A302240F312D1D
S1131160311D43E0359527954A95E1F7281739074E
S11311700CF4E8C0289882EC8EBD0DB407FEFDCFB8
S11311808EB589E08EBD0DB407FEFDCF8EB5289ACD
S11311900E942D037B018C01888184FD03C0C0E083
S11311A0D0E006C0F20180818550E201C80FD11D54
S11311B0289881E88EBD0DB407FEFDCF8EB51EBC08
S11311C00DB407FEFDCF8EB5289A8F71893021F0BA
S11311D087E080937A04B6C08FB7F89499272F9A42
S11311E020918400309185008FBF2F98289880E645
S11311F08EBDF20190810DB407FEFDCF8EB59EBD6C
S1131200792F7250773010F4672F01C067E0F40132
S1131210962F41910DB407FEFDCF8EB54EBD915072
S1131220C1F76150F401E60FF11D6F5F31962E197D
S11312303F092E553F4F3901882477FC8094982C20
S11312406E0C7F1C801E911E209719F4972F961BFD
S11312501FC088819981AA81BB8186199709A80931
S1131260B9098B83292F3A2F4B2F55272A839D01A8
S11312704427552729838B2F9927AA27BB2788839F
S1131280E5CF20810DB407FEFDCF31968EB52EBD7E
S11312909150B8F70DB407FEFDCF8EB5289A289863
S11312A082EC8EBD0DB407FEFDCF8EB586E08EBDFB
S11312B00DB407FEFDCF8EB5289A209779F1888169
S11312C0E9802A81AB80332744275527542F432FA5
S11312D0322F22279927AA27BB27B82FAA27992775
S11312E08827FF24002711278701FF24EE248E2955
S11312F09F29A02BB12BBB24CC24DD248A299B2934
S1131300AC29BD29282B392B4A2B5B2B260D371DE5
S1131310481D591D288339834A835B83C2010E9477
S11313205203C2010E945703FC01608271828282CF
S1131330938286E080937A0484E080932A0280E09A
S113134090E002C085E090E0DF91CF911F910F9172
S1131350FF90EF90DF90CF90BF90AF909F908F90D1
S11313607F906F905F904F9008951F93982F1FB7B1
S1131370F89480911902823099F5809107028917B7
S113138079F58091050220E030E08F3F11F421E0EF
S113139030E0232BF1F49FEF909307028F3F19F471
S11313A02FEF30E00DC0282F3327F901EE55FD4F04
S11313B08081809305028F3F11F4909306029083FD
S11313C020936C0281E08093190286E00E94C2009F
S11313D005C08FEF809307021092190221E001C02B
S11313E020E0812F99278FBF90E0213009F491E00C
S11313F081E09827892F99271F9108958130A9F0BA
S1131400813028F08230D9F0833079F51EC044232E
S1131410F1F082E00E94C2008FB7F894992722B1BC
S113142034E0232722B98FBF0895442381F08091AB
S11314301002882311F080E012C084E010C044231D
S113144031F083E00E94C20002C0442319F40E94D8
S11314507602089580911002882321F081E00E9491
S1131460C200089585E00E94C20008952FB7F89441
S11314703327809361022FBF8BE00E94C20008953E
S11314809C0180912902882319F085E090E0089559
S1131490309323042093220481E080932902109244
S11314A089038BE00E94C20080E090E00895CF930E
S11314B0DF93EC018FE38A878091B5028F5F80937D
S11314C0B5028B8380913A0290913B02892B11F0F3
S11314D025E017C088A599A5892B21F061E0CE01EC
S11314E00E947F02CE010E94400A9927282F882358
S11314F041F4D0933B02C0933A021092A702109297
S1131500A602822F9927DF91CF9108951F93CF933D
S1131510DF93182FFA01422F2D3118F086E090E066
S11315208AC0DF011196ED018981218150E099275C
S1131530982F88273327822B932B87749C7C815484
S1131540984809F451E0552329F481E4818388E81B
S1131550ED018983435F40832FB7F894332780914B
S11315600202909103022FBF8087892F99278187D8
S11315702FB7F8943327809104022FBF99278483CF
S1131580158213876683872F992787838FB7F894EB
S1131590282F332780911902882371F482E08093E5
S11315A01902109207022FBFCF010E94570A9927F0
S11315B0182F882399F00FC02FBFF0936E02E09389
S11315C06D028FB7F894C82FDD272C2F8091190254
S11315D0882399F406C080E00E94B509812F9927D9
S11315E02AC081E08093190210926C0286E00E9466
S11315F0C200CFBF80E090E01EC08091A2028F3F66
S113160089F4E0910602EE2369F010C010920502FD
S113161004C0FF27EE55FD4F10821092060280E0B1
S113162090E002C085E090E02FBF05C080910502E4
S11316308F3F79F7EBCFDF91CF911F910895CF932F
S1131640DF93582FFB01843018F081E090E033C021
S1131650C82FDD27CC0FDD1FCF53DC4F8881998144
S1131660892B19F085E090E026C079836883435F75
S113167040834D5080910B02843018F480E090E058
S11316801AC0838567817727762F662726813327BB
S1131690622B732B50930B02242FAF010E94860AF6
S11316A09927282F882329F084E080930B0219823C
S11316B01882822F9927DF91CF910895FB018683A9
S11316C0892F9927878382E0838781E00E941F0BFB
S11316D099270895FB018683892F9927878384E0BE
S11316E0838783E00E941F0B992708951F9380919D
S11316F00B029927019664E070E00E943E1B682F5C
S113170080930B0210E0462F5527FA01EE0FFF1FBE
S1131710EF53FC4FA081B181109799F0E62FE69525
S1131720E695E695FF27ED58FB4F808199279A01AE
S11317302770307002C0959587952A95E2F780FF4F
S11317400DC0CA01019664E070E00E943E1B682F40
S11317501F5F1430C1F610930B0219C060930B0283
S11317606430A8F42C912D503327FD01678177272D
S1131770762F662786819927682B792BAD0183857F
S11317800E94860A882319F081E10E94C2001F91F9
S11317900895EF92FF920F931F93CF93DF93E82E58
S11317A000913A0210913B0210923B0210923A02CD
S11317B08091D7038D7F8093D7038091A602909167
S11317C0A702F80191A780A782858F33E1F480E016
S11317D00E94B509F0900B02F3E0FF15A0F0EF2D85
S11317E0FF27EE0FFF1FEF53FC4FC081D181C017BD
S11317F0D10749F4118210820E94760B4E2DBE014E
S11318008F2D0E94FE09DF91CF911F910F91FF90C0
S1131810EF900895AF92BF92CF92DF92EF92FF9232
S11318200F931F93CF93DF9380912B04882309F4A4
S113183013C10E941308882309F40EC18FB7F894CA
S11318409927C0914F03D09150038FBF10922B045E
S113185028988FE88EBD0DB407FEFDCF8EB51EBC53
S11318600DB407FEFDCF8EB5289A982FA82EBB2461
S1131870A0FE0CC080912A02833011F0873031F42D
S113188085E080937A0488E080932A02A2FE5FC0F8
S113189080912A02863019F410922A0203C0882308
S11318A009F055C0943009F041C0289886E88EBDEF
S11318B00DB407FEFDCF8EB51EBC0DB407FEFDCFE3
S11318C02EB5289A2F718091A302982F96959695FC
S11318D0322F391B830F8093A302E0913702F091DA
S11318E0380280A98B7F886080AB22AB0E942D03D5
S11318F06B017C010091370210913802C8010E94EB
S11319005203C8010E945703FC01CC19DD09279733
S1131910CE01AA2797FDA095BA2F8C0D9D1DAE1D53
S1131920BF1D80839183A283B3830EC0E0913702ED
S1131930F091380280A9877F80ABE0913702F09163
S1131940380280A98D7F80AB85E080932A02A3FEB4
S113195083C080912A02843009F04BC085E08093D3
S11319607A0410922A028091AE02833019F4109204
S1131970AE0272C0E0918703F091880382812181D5
S11319809927982F88273327822B932B85FF29C0EB
S113199087749C7C8154984821F5878126819927F6
S11319A0982F88273327822B932B8F5F9F4FC9F063
S11319B090E080915103882309F491E0992389F000
S11319C012E01093290481E08093510380918400F4
S11319D09091850061EE72E00E9459031093AE026B
S11319E03BC01092AE0210927B0480E00E94360A43
S11319F033C0853089F580917A04873091F4289832
S1131A0082EC8EBD0DB407FEFDCF8EB586E08EBD93
S1131A100DB407FEFDCF8EB5289A85E080937A0435
S1131A2017C02091B402289886E88EBD0DB407FE35
S1131A30FDCF8EB51EBC0DB407FEFDCF8EB5289A22
S1131A408F71922F96959695891B280F2093B40237
S1131A5089E080932A0208C090912A02992309F40C
S1131A60E2C2993009F00FC2289880E28EBD0DB40D
S1131A7007FEFDCF8EB51EBC0DB407FEFDCF8EB59F
S1131A80482F5527433008F49EC3842F99278A97FB
S1131A900CF099C31EBCE0913702F09138024083E8
S1131AA0542F5250573010F4452F01C047E09F0186
S1131AB02F5F3F4F942FF90160E070E00DB407FEF3
S1131AC0FDCF8EB51EBC808381916827062E62955A
S1131AD0607F6025072E762F62956F7006266695C7
S1131AE076276727660F660F660F6025915031F7DA
S1131AF04150D901A40FB11D4F5F1196E0913702F7
S1131B00F09138028181282F3327277030702230DA
S1131B10310509F491E09923B9F08091AE02823045
S1131B2081F48381E0918703F0918803938189177D
S1131B3041F490E02230310509F091E081E09827EA
S1131B400EC080E090E00DC08FB7F894282F3327A3
S1131B5090E08091CD03833008F491E02FBF892F6A
S1131B609927892B09F42FC3952F941B18C00DB402
S1131B7007FEFDCF8EB51EBC8C938D916827062E73
S1131B806295607F6025072E762F62956F7006261A
S1131B90669576276727660F660F660F6025915056
S1131BA030F70DB407FEFDCF8EB51EBC9B01282770
S1131BB0022E2295207F2025032E322F22952F706E
S1131BC00226269532272327220F220F220F2025B3
S1131BD00DB407FEFDCF8EB51EBC2827022E22951C
S1131BE0207F2025032E322F22952F700226269542
S1131BF032272327220F220F220F20250DB407FEA0
S1131C00FDCF8EB5E0913702F091380281AB289A6E
S1131C1085E080937A0410922A02232B09F0FFC1F5
S1131C20E0903702F090380257010894A11CB11CCF
S1131C30F701818190E08770823009F491E0292FC7
S1131C403327122F8091AE028230C9F480916F0045
S1131C508D7F80936F0010925103E0918703F09180
S1131C60880380A9222311F0816001C08E7F80AB9C
S1131C701092AE0210927B0480E00E94360A112377
S1131C8009F0FCC0C7010E9483038823A9F085E002
S1131C9080938C0382E080938D0310928E03F50170
S1131CA0828180938F038CE893E00E943F0888230D
S1131CB019F483E08093AE020091840010918500B2
S1131CC0C7010E948303882311F0045E1C4F109304
S1131CD0A9020093A8028091840090918500081BBA
S1131CE0190BC801101611066CF420917B042223F1
S1131CF031F40E947A0680E880937B0403C0206854
S1131D0020937B04F501808527819927582F442748
S1131D103327422B532B80914102282F3327F9017B
S1131D20EE0FFF1FE45DFB4F8081918170911F04D2
S1131D308417950769F4F901E458FB4F80818717EC
S1131D4009F467C0872F8F5F80931F0480831DC0B1
S1131D5000E010E080E090E0CCE2D4E0ECE7F4E0D6
S1131D60DF01682F9C01888199818417950779F494
S1131D702093410290911F048C91891709F449C062
S1131D80892F8F5F80931F048C9300E829C0808182
S1131D90972F981B091710F4092F122F6F5FC90191
S1131DA0019611962296319685309105D1F66530CB
S1131DB0B9F410934102A12FBB27FD01EE0FFF1FC1
S1131DC0E45DFB4F5183408380911F048F5F8093B8
S1131DD01F04FD01E458FB4F8083AD57BB4F1C9299
S1131DE090911F04892F8F778F3779F40F3768F01C
S1131DF0ECE7F4E0292F207880818F678913208312
S1131E00319634E0E138F307B9F780914102282F85
S1131E103327F5019281A22FBB27FD01ED57FB4F1C
S1131E20808180FF07C0FD01EC5DFB4F8081981726
S1131E3029F102C081608083AC5DBB4F9C93CFB617
S1131E40F8948091CD038330B0F4E0913902E80F27
S1131E50E33008F0E350FF27EE0FFF1FE35DFD4F73
S1131E6000811181F182E0828F5F8093CD038CE049
S1131E700E94C20078018C2D99278FBFF0923802FE
S1131E80E0923702C3C0892F8150833008F09CC090
S1131E9081508230E0F430917A043130C1F420E092
S1131EA080915103882309F421E0222381F02F98A3
S1131EB083E08093290430935103809184009091AE
S1131EC085006BE273E00E94590382E068C093309E
S1131ED009F042C080917A04833009F097C00E94CF
S1131EE013088823C9F128988FE88EBD0DB407FE26
S1131EF0FDCF8EB51EBC0DB407FEFDCF8EB5289A5E
S1131F008091810080648093810080E286BB80910F
S1131F106F00806280936F0090916B02289888EC28
S1131F208EBD0DB407FEFDCF8EB590669EBD0DB47B
S1131F3007FEFDCF8EB5289A289882EC8EBD0DB48D
S1131F4007FEFDCF8EB586E08EBD0DB407FEFDCF36
S1131F508EB5289A84E023C080912A028150823071
S1131F6000F580917A048530E1F40E9413088823F7
S1131F70C1F0289882EC8EBD0DB407FEFDCF8EB55E
S1131F8083E08EBD0DB407FEFDCF8EB5289A8091F7
S1131F906F008F7D80936F0010922B0483E08093F9
S1131FA07A0490912A02913041F480917A0483302A
S1131FB0B1F52F9A90937A0425C0923039F5809127
S1131FC07A04833061F51EC0973001F50E9413082E
S1131FD08823E1F090916B02289888EC8EBD0DB4B3
S1131FE007FEFDCF8EB590669EBD0DB407FEFDCFF6
S1131FF08EB5289A80917A04853021F484E0809308
S11320007A0404C088E080932A0204C080912A02E2
S1132010883029F410922A028AE00E94C20080913A
S11320202A02882331F580917A048530F9F480916D
S11320302B048823D9F48091AE028823B9F48091CB
S11320407B04882399F490E080915103882309F458
S113205091E0992359F080912902813039F48BE081
S11320600E94C20080912A02882319F480E00E9411
S1132070AA0280915103823009F098C01092510352
S1132080C0902904F2E0CF1609F46CC023E0C21614
S113209009F470C031E0C31609F088C02091A80289
S11320A03091A902809184009091850040917B0435
S11320B0403859F410927B0480912902813009F050
S11320C075C08BE00E94C20071C08901081B190B06
S11320D047FF03C010161106ECF0C091AC02D0917A
S11320E0AD028091AE028823A9F4CE010E943F087C
S11320F09927882351F488A98E7F88ABC092AE02B9
S1132100D0938803C093870329C09927F82E882386
S113211029F102C0B5E0FB2E20917B04822F992780
S11321208F77019759F42078226020937B0480E113
S113213098E00E94B0030E947A0638C027FF0AC0C4
S1132140101611063CF480E880937B04C8010E94B9
S11321507A0602C010927B048F2D09C083E080931D
S11321607B0424C01092AE0210927B0480E00E9493
S1132170360A1CC080917A04823019F4C0927A0421
S113218013C080912A02863079F410922A0228988A
S113219081E88EBD0DB407FEFDCF8EB51EBC0DB417
S11321A007FEFDCF8EB5289A0E940C118FB7F894C4
S11321B0282F332780916702813061F081E080937A
S11321C067022FBF31CB289A85E080937A0410925E
S11321D02A0225CF109267022FBFDF91CF911F9162
S11321E00F91FF90EF90DF90CF90BF90AF90089544
S11321F08FB7F894282F33278091670281508093FA
S11322006702803811F02FBF089581E08093670240
S11322102FBF0E940A0C08958FB7F894282F3327F4
S113222080916702882329F08068809367022FBF1A
S1132230089581E0809367022FBF0E940A0C0895DD
S113224078941F920F920FB60F9211242F933F93FD
S11322504F935F936F937F938F939F93AF93BF93AA
S1132260EF93FF93809184009091850020918600E4
S1132270309187008FB7F8949927309350032093B7
S11322804F0321E020932B048FBF0E940C11FF9178
S1132290EF91BF91AF919F918F917F916F915F91DA
S11322A04F913F912F910F900FBE0F901F90189553
S11322B078941F920F920FB60F9211242F933F938D
S11322C04F935F936F937F938F939F93AF93BF933A
S11322D0EF93FF9380916F008D7F80936F007894CC
S11322E09FB7F89480915103813019F482E0809370
S11322F05103892F99278FBF0E940C11FF91EF91F1
S1132300BF91AF919F918F917F916F915F914F9109
S11323103F912F910F900FBE0F901F9018951F9310
S11323208FB7F8949927209167022F5F2093670253
S11323308FBF80912902882311F015E023C080917A
S11323402A028823E1F480917A04813049F490E0F0
S113235080915103882309F491E0992381F005C009
S1132360853019F489E090E00CC083E080932A0260
S11323700E940C1184E08093290210E003C085E0E0
S113238090E0182F0E94F810812F99271F9108952B
S11323902F923F924F925F926F927F928F929F9271
S11323A0AF92BF92CF92DF92EF92FF920F931F935F
S11323B0CF93DF93CDB7DEB729970FB6F894DEBF7E
S11323C00FBECDBFE82FFF27EE31F10508F0F2C5AF
S11323D0EA59FF4FEE0FFF1F0590F491E02D099489
S11323E080917304882309F010C4E4C566E08FE685
S11323F092E00E947D04FC018091110290911202EE
S11324008183892F992780838091130290911402EC
S11324108383892F992782838091000290910102FE
S11324208583892F9927848381E08093100246E075
S11324306FE672E0B3C06CE18FE692E00E947D0427
S11324407C018FB7F894082F1127809124028823E8
S113245089F491E090932402109260020FBF80915E
S11324602502882321F48AE10E94C2000EC09093C1
S113247026020BC080E00E945C01882329F480912D
S113248068028160809368020FBF8FB7F894082FA9
S1132490112780911C02882389F491E090931C02F7
S11324A010922A040FBF80911D02882321F483E136
S11324B00E94C2000EC090931E020BC080E00E94D6
S11324C06202882329F48091CE0381608093CE0335
S11324D00FBF8091110290911202F7018183892F1D
S11324E09927808380911702909118028583892F00
S11324F09927848380911502909116028783892FEE
S11325009927868380910002909101028383892F09
S11325109927828381E0809310024CE16FE672E098
S113252049C062E08FE692E00E947D04FC01809144
S11325301102909112028183892F992780838FEF52
S11325408093F2038093F30381E08093F70342E0E6
S11325506CEE73E080E01AC062E08FE692E00E94C5
S11325607D04FC0180911102909112028183892FD4
S1132570992780838FEF8093F2038093F30383E0A2
S11325808093F70342E06CEE73E082E00E941F0B3D
S113259011C51092100246E06DE374E080911302BD
S11325A0909114020E945E0B05C5109210024CE13A
S11325B06DE374E080911302909114020E946A0BFF
S11325C0F9C42FB7F894332780916C0280930702E3
S11325D082E0809319022FBF80910702882309F0BB
S11325E0E9C480916D0290916E020E94570AC82E30
S11325F0DD24CC2009F4DEC480E00E94B50980917A
S11326006D0290916E02F0900B02F3E0FF1508F456
S1132610D1C4EF2DFF27EE0FFF1FEF53FC4F0081B6
S113262011810817190709F0C5C4118210820E948C
S1132630760B4C2DB8018F2D20C3E0913A02F09116
S11326403B0280A591A5892B21F061E0CF010E9476
S11326507F0280913A0290913B020E94400A8823B3
S113266009F4A8C416C180916402882361F52091FD
S11326703604309137044091380450913904EFB74F
S1132680F894FF27609133027091340280913502EF
S113269090913602E0907404F090750400917604F1
S11326A0109177046E0D7F1D801F911FEFBF209343
S11326B0360430933704409338045093390410920D
S11326C064020E9463040E9425023FC00E94250206
S11326D05B016C018FB7F89499271092AA028FBFFF
S11326E02FEF3FEF4FEF5FE760E0EFECF3E0808523
S11326F081FF1CC080819181A281B3818601750113
S1132700E81AF90A0A0B1B0BD801C701E480F5800B
S113271006811781E81AF90A0A0B1B0BE216F30665
S1132720040715071CF4A801970161E0399603E03A
S1132730EA3EF007E1F6662309F43CC412161306D8
S1132740140615062CF0C601B5010E94D30632C446
S1132750209336043093370440933804509339045B
S113276081E080936402C601B5010E94630422C41F
S11327708091290210922902843009F41BC4853007
S113278009F418C4863009F415C48093290212C4CC
S11327908FB7F8949927109161028FBF8091290215
S11327A0823011F4112339F0809189038F5F809373
S11327B08903863020F083E0809329023CC08FB7E0
S11327C0F8949927209167022F5F209367028FBFA7
S11327D0209122043091230480917B048823D1F436
S11327E090E080915103882309F491E0992391F0BA
S11327F03093AD022093AC0281E080937B0486EB9E
S113280093E20E94B0030E947A0682E08093290238
S113281010E00AC080918903853011F483E001C07F
S113282081E08093290215E00E94F810809129022A
S1132830833009F0BFC310922902E0912204F09181
S113284023042091A6023091A7022F5F3F4F3093BB
S1132850A7022093A60280A980FF02C080E01CC0CA
S1132860E0913A02F0913B0280A591A5281739071F
S113287090F4CF010E94D3038C01892B51F00E9464
S11328802502AB01BC0122273327B1E0EB2E80E007
S1132890BAC287E0FCC2812F0E94C90B8BC38FB7D9
S11328A0F894282F33278091CD03882309F481C31A
S11328B0E0913902FF27EE0FFF1FE35DFD4F00811A
S11328C011812FBFF80182858F3309F07FC06385A2
S11328D0878126819927582F44273327422B532B4E
S11328E08FB7F894992720910202309103028FBF89
S11328F04217530721F04F5F5F4F09F06BC0862FDB
S11329009927823009F443C0833020F4813009F0E0
S113291061C007C0833009F43EC0843009F05AC056
S113292053C0F801848525859927982F8827332754
S1132930822B932B20911102309112022817390710
S113294008F048C02FB7F894332782B192E0892762
S113295082B92FBF818520859927982F882733270F
S1132960822B932B909314028093130284852585E4
S11329709927982F88273327822B932B9093120221
S11329808093110280E00E94C20082E001C084E0D2
S11329900E94C2001FC0F801848525859927582FFD
S11329A044273327422B532B80911102909112021A
S11329B08417950778F4509312024093110281E032
S11329C00E94C20083E0E4CF85E0E2CF8FB7F894A1
S11329D099278FBF9FB7F89480913902E82FFF277A
S11329E0EE0FFF1FE35DFD4F118300838F5F809324
S11329F03902833010F0109239028091CD03815056
S1132A008093CD03892F99278FBF49CFFFB7F983CF
S1132A10F8942090AF023090B0024090B1025090F0
S1132A20B2026624772488249EE4A92E83E8B82E73
S1132A30CC24DD24EE24FF2400E010E0222D332DED
S1132A40442D552D662D772D882D90E00E94A219D6
S1132A502A833B834C835D836E837F838887998736
S1132A60822E932EA42EB52E2401350100E20E945D
S1132A70A01AA22EB32EC42ED52EA30192015695D0
S1132A804795379527952A0D3B1D4C1D5D1D57FF16
S1132A9005C05F772F5F3F4F4F4F5F4F2093AF02CB
S1132AA03093B0024093B1025093B202E9808E2D6C
S1132AB099278FBF8FB7F894992730936A02209390
S1132AC06902FAC18FB7F89499271092EB03109218
S1132AD0EA03109279041092780410922C02109256
S1132AE02B021092C0031092BF03E6C12FB7F894D3
S1132AF033278091530380930A0282E080931A0261
S1132B002FBF80910A02882309F054C2209A289A80
S1132B1080917A04882309F075C08EEF91E00197C3
S1132B2001960197E1F716982F9886E090E00197B7
S1132B3001960197E1F7169A289883EC8EBD0DB49F
S1132B4007FEFDCF8EB51EBC0DB407FEFDCF8EB5BE
S1132B50289A289882EC8EBD0DB407FEFDCF8EB561
S1132B6088E08EBD0DB407FEFDCF8EB5289A8EEF9A
S1132B7091E0019701960197E1F728988EEC8EBDBC
S1132B800DB407FEFDCF8EB58DE48EBD0DB407FEEA
S1132B90FDCF8EB5289A289889EC8EBD0DB407FE1A
S1132BA0FDCF8EB587EC8EBD0DB407FEFDCF8EB57F
S1132BB0289A289885EC8EBD0DB407FEFDCF8EB5FE
S1132BC080E88EBD0DB407FEFDCF8EB5289A109215
S1132BD08B038BE080936B02289888EC8EBD0DB438
S1132BE007FEFDCF8EB58BE68EBD0DB407FEFDCF7F
S1132BF08EB5289A2F9A81E080937A0480E00E940F
S1132C00AA02D8C10E940C11D5C111E0F12E00E036
S1132C1010E0B1ECCB2EB3E0DB2E909173048F2D3A
S1132C20892371F0F60160817181118210828F2DE8
S1132C30809598239093730443E0802F0E94FE09AB
S1132C400F5F1F4F82E090E0C80ED91E08301105B7
S1132C5009F4B0C1FF0CE1CF10910B02E12FFF2763
S1132C60EE0FFF1FEF53FC4FE080F18011821082C2
S1132C700E94760B41E0B701812F0E94FE099AC1A0
S1132C808FB7F894992720912A0420930C0223E00B
S1132C9020931C028FBF10910C0280E00E947001EF
S1132CA0882309F487C180912002882309F082C116
S1132CB082E080938A03109270040E94850181E06F
S1132CC0809320021093650275C10E944E0272C166
S1132CD080911F02813009F06DC14098389885E1D8
S1132CE0D6C080E00E94A30710921F0280911E02AA
S1132CF0813011F40E944E028FB7F89499271092F4
S1132D001E0210921D02D8C010922002C0906202CE
S1132D10D0906302A090B302B09065028FB7F8948C
S1132D20E82E80911C02833009F041C080910C028E
S1132D308B15E9F58091CE03882309F025C11BC1C9
S1132D40EF2DE695E695E695FF274F2D5527E2539F
S1132D50FC4F9A012770307081E090E002C0880F28
S1132D60991F2A95E2F780952081282320830093D8
S1132D701B0212C00F5F1F4F0130110511F400E058
S1132D8010E0F02E802F0E9462028823C9F60815F5
S1132D90190581F74FEF50E040932A048FEF809399
S1132DA00C0281E080931C0282E10E94C200EFBE0B
S1132DB0BB2009F0FFC0AA2009F0FCC0D092160283
S1132DC0C0921502F7C08FB7F89499272091AB02EF
S1132DD020930D0223E0209322028FBF80910D02E5
S1132DE0882321F0813009F0E5C010C0389A409A58
S1132DF00E942502AB01BC01F1E0EF2E0AE010E0D5
S1132E0020E030E081E00E940602D4C06D9A759AF9
S1132E100E942502AB01BC01E1E0EE2E0AE010E0C5
S1132E2020E030E082E0EFCF10928A03C3C08FB776
S1132E30F89499272091600220930E0223E02093B6
S1132E4024028FBF00910E0281E00E94700188234A
S1132E5009F4B0C080912802882309F0ABC082E055
S1132E6080938A0311E0109370040E9485011093EB
S1132E702802009382049EC00E9448019BC0809156
S1132E802702813009F096C075986D988CE10E94F4
S1132E90C20090C081E00E94A30710922702809193
S1132EA02602813011F40E9448018FB7F8949927C3
S1132EB010922602109225028FBF7CC01092280225
S1132EC0C0907104D0907204A090A402B0908204C7
S1132ED08FB7F894E82E80912402833009F041C022
S1132EE080910E028B15E9F580916802882309F020
S1132EF05AC050C0EF2DE695E695E695FF274F2D75
S1132F005527E859FD4F9A012770307081E090E011
S1132F1002C0880F991F2A95E2F780952081282303
S1132F2020830093230212C00F5F1F4F013011054D
S1132F3011F400E010E0F02E802F0E945C01882341
S1132F40C9F60815190581F74FEF50E04093600268
S1132F508FEF80930E0281E08093240289E10E9426
S1132F60C200EFBEBB2031F5AA2021F5D092180291
S1132F70C09217021FC081E080930C0210921C02C1
S1132F8080931D0284E111CF80911B02882E992425
S1132F908401F0CE81E080930E021092240280938B
S1132FA025028BE1DCCF80912302882E99248401B1
S1132FB0BBCF2FBF29960FB6F894DEBF0FBECDBF8F
S1132FC0DF91CF911F910F91FF90EF90DF90CF9001
S1132FD0BF90AF909F908F907F906F905F904F9035
S1132FE03F902F90089580913A048F3FB1F0282F9D
S1132FF03327F901EE5BFD4F808180933A048F3FC4
S113300011F4809381048FEF80832F3F31F0822F5E
S11330100E94C81181E090E0089580E090E0089556
S1133020CFEFD1E2DEBFCDBF1FB7F8944EE150E041
S11330306FEF70E082E492E00E94231B8FEF809395
S11330403A048093810456985E9854985C988091D1
S11330506F008F7D80936F00209A289A279A2F986B
S11330600E9A169A84E593E090933802809337027F
S11330701092B4028AE58093A30281E080938100D8
S113308080E28093B60083E08093B1008091840055
S1133090909185004AE7209184003091850028179B
S11330A0390708F44150442311F0C901F4CF909139
S11330B0B2008091B2008917E1F32091840030912D
S11330C085009091B2008091B2008917E1F380915C
S11330D0840090918500821B930B409625E0969581
S11330E087952A95E1F790933C0480933B041092D2
S11330F0B1008091B1008093810080918100809320
S1133100B6001092B20010928500109284008FEFE6
S113311087BB87B386BB8091B6008571E1F70A9AB5
S1133120099A089A129A119A109A18B88FEF87B9C7
S11331300C98149810927A001092850010928400D2
S113314080916F00816080936F0080918100887FFF
S113315082608093810081E085BF0E94F3178823F9
S1133160E1F71092680210923C021092CE038FEFA6
S11331708093520380E00E948806209100023091DF
S113318001022F5F3F4FC901AA27BB278093AF02DB
S11331909093B002A093B102B093B20286EB92E096
S11331A090932E0280932D02C396909330028093C5
S11331B02F028CE193E0909332028093310280914C
S11331C0B60080628093B6008091B60081FDFCCF8A
S11331D082E08093B0008091B60080FDFCCF83E054
S11331E08093B1008091B60083FDFCCF86EE80937E
S11331F0B300809170008260809370000E94D703B6
S11332008FEF9FEF90932D0480932C0490932F04C1
S113321080932E049093310480933004909333046C
S11332208093320490933504809334048091000297
S11332308295807F8093B5028FEF8093A2020E94D3
S1133240F3178823E1F7812F99278FBF78940E9481
S11332508F1111988FB7F894482F552758C0809133
S11332607000992783709070892B19F4E5E0F0E0E1
S113327014C08091B6008A71E1F78091B3009091F7
S1133280B200891B8C3038F08091B200853F18F46D
S1133290E3E0F0E002C0E2E0F0E080916E008670CE
S11332A009F580916F008E72E9F4809171008E723D
S11332B0C9F40CB407FC16C08091C100807E91F45F
S11332C08091C900807E71F48091BC0082FD0AC0A7
S11332D080917A0087FF03C081E090E005C085E01B
S11332E090E002C080E090E023B78E1708F4E82F46
S11332F0FF27E85FFE4FC895E02D207F2160E22B79
S1133300E3BF78948895F89483B78E7F83BF8091C8
S11333103A048F3F09F4A3CF282F3327F901EE5B3A
S1133320FD4F808180933A048F3F11F48093810490
S11333308FEF80832F3F09F492CF4FBF822F0E94DB
S1133340C81188CFACE2B0E0E8EAF9E10C94701B54
S1133350222E332E442E552E662E772E882E992E0D
S1133360FE013196A8E01192AA95E9F729823A82E2
S11333704B825C826D827E828F829886FE013996B2
S1133380B8E01192BA95E9F7A986BA86CB86DC86AD
S1133390ED86FE860F87188B89819A81AB81BC816B
S11333A089A79AA7ABA7BCA77C018D018FEF9FEFDC
S11333B0A0E0B0E0E822F9220A231B2389A59AA5FC
S11333C0ABA5BCA51D014424552489859A85AB85EC
S11333D0BC858DA39EA3AFA3B8A75C016D018FEF3D
S11333E09FEFA0E0B0E0A822B922CA22DB228DA17F
S11333F09EA1AFA1B8A53D0188249924C801B701B5
S1133400A60195010E94511B69A37AA38BA39CA3D7
S1133410C801B701A40193010E94511B7B018C01D7
S1133420C201B101A60195010E94511B5B016C010F
S1133430C201B101A40193010E94511B3B014C0143
S1133440EA0CFB1C0C1D1D1D89A19AA1ABA1BCA1FA
S11334509D01442755272E0D3F1D401F511F2A153E
S11334603B054C055D0540F480E090E0A1E0B0E050
S1133470680E791E8A1E9B1ECA01AA27BB27860DC9
S1133480971DA81DB91D8D8F9E8FAF8FB8A3A9015D
S11334903327222789A19AA1ABA1BCA1A070B07047
S11334A0280F391F4A1F5B1F298F3A8F4B8F5C8F60
S11334B0A98CBA8CCB8CDC8CED8CFE8C0F8D18A176
S11334C0FE01719698E011929A95E9F7ED8AFE8AC9
S11334D00F8B188F2D813E814F8158856DA17EA160
S11334E08FA198A50E94511B3B014C012D853E855F
S11334F04F85588969A57AA58BA59CA50E94511B67
S11335002D893E894F89588D260F371F481F591F13
S1133510260D371D481D591D2D8B3E8B4F8B588F03
S11335206D887E888F88988C2A2D3B2D4C2D5D2D9F
S1133530662D772D882D992DE2E1AC960C948C1B89
S1133540A0E1B0E0E6EAFAE10C94701B222E332EDF
S1133550442E552E662E772E882E992E002309F49C
S113356066C088E0FE01319611928A95E9F72983B5
S11335703A834B835C836D837E838F829887E0E2FA
S1133580E01B1E16CCF52D813E814F815885602F9E
S1133590772767FD7095DA01C901062E04C0B69538
S11335A0A795979587950A94D2F78D879E87AF87BD
S11335B0B88B04C0220F331F441F551FEA95D2F75E
S11335C089819A81AB81BC8104C0B695A7959795F2
S11335D087956A95D2F7282B392B4A2B5B2B2987A1
S11335E03A874B875C8729843A844B845C846D8456
S11335F07E848F8498881BC01D861E861F86188A29
S11336002E2F332727FD3095309521953F4F8D81FF
S11336109E81AF81B88504C0B695A7959795879587
S11336202A95D2F789879A87AB87BC87DCCF222D6E
S1133630332D442D552D662D772D882D992DE2E1BE
S113364060960C948C1BDC0101C06D93415050407A
S1133650E0F70895AA1BBB1B51E107C0AA1FBB1FBB
S1133660A617B70710F0A61BB70B881F991F5A950A
S1133670A9F780959095BC01CD01089597FB092E7B
S113368007260AD077FD04D0E5DF06D000201AF41F
S1133690709561957F4F0895F6F7909581959F4FAA
S11336A00895629FD001739FF001829FE00DF11D88
S11336B0649FE00DF11D929FF00D839FF00D749FA8
S11336C0F00D659FF00D9927729FB00DE11DF91F54
S11336D0639FB00DE11DF91FBD01CF0111240895B1
S11336E02F923F924F925F926F927F928F929F920E
S11336F0AF92BF92CF92DF92EF92FF920F931F93FC
S1133700CF93DF93CDB7DEB7CA1BDB0B0FB6F894AC
S1133710DEBF0FBECDBF09942A88398848885F84EC
S11337206E847D848C849B84AA84B984C884DF805D
S1133730EE80FD800C811B81AA81B981CE0FD11D41
S11337400FB6F894DEBF0FBECDBFED010895FFCFD5
S11337500100010022FFFFFFFFFFFF04010201003F
S9030000FC
